:1000000026C10000A7C400007AC400004DC400004F
:1000100020C40000F3C30000C6C3000099C3000061
:100020006CC3000045C1000043C1000041C1000095
:100030003FC100003DC100003BC1000039C10000CC
:1000400037C1000035C1000033C1000031C10000DC
:100050002FC100002DC100002BC1000004C300000F
:1000600027C1000025C1000023C1000021C10000FC
:100070001FC100001DC100001BC1000019C100000C
:1000800017C1000015C1000013C1000011C100001C
:100090000FC100000DC100000BC1000009C100002C
:1000A00007C1000005C1000003C1000001C100003C
:1000B000FFC00000FDC00000FBC00000F9C0000050
:1000C000F7C00000F5C00000F3C00000F1C0000060
:1000D000EFC00000EDC00000EBC00000E9C0000070
:1000E000E7C000009F01A201910195019B01D90188
:1000F000A601AA01B001B401B801BE01C201C60146
:10010000D901CC01D001D401B00CB50CBA0CC40C8F
:10011000CE0C470DD80CE00CE80CF20CFC0C060DD4
:10012000150D1F0D470D290D330D3D0D000021004C
:10013000240027002A002D003000330001010000B8
:10014000040107010A0100002200250028002B00FD
:100150002E003100340002010000050108010B01EE
:10016000000020002300260029002C002F00320070
:100170000001000003010601090105050505070549
:1001800008080808020202020A0A08080404040413
:10019000010101010101010103030303030303033F
:1001A000040707070C0C0C0C0C0C0C0C02020202CE
:1001B00006060606060606060B0B0B0B0B0B0B0BB7
:1001C0000102102020080810204010204080020169
:1001D000020108040201010204081020408080404E
:1001E000201008040201800402018040201008044D
:1001F00002010804020101020408102040800102EB
:1002000004081020408000000A0B02090C0D0E08A3
:1002100007030401000000000000000000000000CF
:1002200000000000000000000000000000000000CE
:10023000000012111000000000000000000000008B
:100240000000000000000000000000000B0E112460
:100250001FBECFEFD1E2DEBFCDBF00E00CBF14E088
:10026000A0E0B2E0ECEBFDE100E00BBF02C00790C4
:100270000D92A433B107D9F724E0A4E3B4E001C0A0
:100280001D92AE3DB207E1F711E0C7E2D1E000E018
:1002900006C021970109802FFE010E94BC0EC632C4
:1002A000D10780E00807A9F70E947B0A0C94DC0EB6
:1002B000A7CECF92DF92EF92FF920F931F93CF932F
:1002C000DF936C017A018B01C0E0D0E0CE15DF0531
:1002D00089F0D8016D918D01D601ED91FC910190CD
:1002E000F081E02DC6011995892B11F47E0102C021
:1002F0002196ECCFC701DF91CF911F910F91FF9015
:10030000EF90DF90CF90089590E0FC013197E231BB
:10031000F10508F04EC08827EE58FF4F8F4F0C9420
:10032000BC0E809180008F7703C0809180008F7D0C
:1003300080938000089580918000877FF9CF84B5F5
:100340008F7702C084B58F7D84BD08958091B00001
:100350008F7703C08091B0008F7D8093B0000895A7
:10036000809190008F7707C0809190008F7D03C0AF
:1003700080919000877F8093900008958091A000E5
:100380008F7707C08091A0008F7D03C08091A0006F
:10039000877F8093A0000895809120018F7707C008
:1003A000809120018F7D03C080912001877F809301
:1003B00020010895863308F0865390917B00282F02
:1003C0002870977F922B90937B0087708064809336
:1003D0007C0080917A00806480937A0080917A001A
:1003E00086FDFCCF809178002091790090E0922BDF
:1003F00008950E94D80ECF93DF93282F30E0F901A3
:10040000EA5FFD4F8491F901E054FE4FD491F90168
:10041000E658FE4FC491CC2389F0811175DFEC2F93
:10042000F0E0EE0FFF1FE05AFE4FA591B491EC9162
:10043000ED2381E090E021F480E002C080E090E0D4
:10044000DF91CF9108951F93CF93DF93282F30E052
:10045000F901EA5FFD4F8491F901E054FE4FD49118
:10046000F901E658FE4FC491CC23C1F0162F81113B
:100470004BDFEC2FF0E0EE0FFF1FEA5BFE4FA59184
:10048000B4918FB7F894111105C09C91ED2FE095B0
:10049000E92302C0EC91ED2BEC938FBFDF91CF915C
:1004A0001F910895CF93DF9390E0FC01E054FE4F3D
:1004B0002491FC01E658FE4F8491882361F190E07D
:1004C000880F991FFC01E45DFE4FC591D491FC019A
:1004D000EA5BFE4FA591B491611109C09FB7F894F2
:1004E0008881209582238883EC912E230BC0623073
:1004F00061F49FB7F8943881822F80958323888395
:10050000EC912E2B2C939FBF06C08FB7F894E881F7
:100510002E2B28838FBFDF91CF9108958F929F92CA
:10052000AF92BF92CF92DF92EF92FF926B017C016C
:1005300069D04B015C01C114D104E104F104E9F07C
:1005400061D0DC01CB0188199909AA09BB09883E51
:100550009340A105B10578F321E0C21AD108E10862
:10056000F10888EE880E83E0981EA11CB11CC1140E
:10057000D104E104F10421F7DECFFF90EF90DF908A
:10058000CF90BF90AF909F908F9008950895089559
:1005900080E090E00895CF93DF93EC0160E08E81DE
:1005A00052DF61E08E814FDF60E08E814CDF8BE8AF
:1005B00091E00197F1F7DF91CF910895862F642F95
:1005C00042CF862F18CF862F642F6CCF85E113DFA3
:1005D000892B61F061E086E236DF61E08EE133DF96
:1005E00063E080E0B9D585E193E00BC060E086E28E
:1005F0002ADF60E08EE127DF63E080E0ADD58BE1AC
:1006000093E0BEC53FB7F894809153049091540491
:10061000A0915504B091560426B5A89B05C02F3F64
:1006200019F00196A11DB11D3FBFBA2FA92F982F18
:100630008827820F911DA11DB11DBC01CD0142E093
:10064000660F771F881F991F4A95D1F708952FB716
:10065000F89460914F0470915004809151049091EE
:1006600052042FBF08951F920F920FB60F921124BC
:100670002F933F938F939F93AF93BF9380914F049A
:1006800090915004A0915104B091520430914E04C5
:1006900023E0230F2D3720F40196A11DB11D05C0C5
:1006A00026E8230F0296A11DB11D20934E048093CE
:1006B0004F0490935004A0935104B093520480913E
:1006C000530490915404A0915504B091560401969E
:1006D000A11DB11D8093530490935404A09355041D
:1006E000B0935604BF91AF919F918F913F912F91FD
:1006F0000F900FBE0F901F9018951F920F920FB67C
:100700000F9211240BB60F922F933F934F935F9349
:100710006F937F938F939F93AF93BF93EF93FF93C9
:10072000E0910E02F0910F021995FF91EF91BF91A8
:10073000AF919F918F917F916F915F914F913F9179
:100740002F910F900BBE0F900FBE0F901F9018951A
:100750001F920F920FB60F9211240BB60F922F9388
:100760003F934F935F936F937F938F939F93AF9339
:10077000BF93EF93FF93E0910C02F0910D02199556
:10078000FF91EF91BF91AF919F918F917F916F9169
:100790005F914F913F912F910F900BBE0F900FBE25
:1007A0000F901F9018951F920F920FB60F92112461
:1007B0000BB60F922F933F934F935F936F937F935B
:1007C0008F939F93AF93BF93EF93FF93E0910202B8
:1007D000F09103021995FF91EF91BF91AF919F9115
:1007E0008F917F916F915F914F913F912F910F90DA
:1007F0000BBE0F900FBE0F901F9018951F920F9277
:100800000FB60F9211240BB60F922F933F934F9375
:100810005F936F937F938F939F93AF93BF93EF9368
:10082000FF93E0910002F09101021995FF91EF9181
:10083000BF91AF919F918F917F916F915F914F91F8
:100840003F912F910F900BBE0F900FBE0F901F90F6
:1008500018951F920F920FB60F9211240BB60F929C
:100860002F933F934F935F936F937F938F939F93B8
:10087000AF93BF93EF93FF93E0910A02F0910B02C5
:100880001995FF91EF91BF91AF919F918F917F91BA
:100890006F915F914F913F912F910F900BBE0F90F1
:1008A0000FBE0F901F9018951F920F920FB60F92C8
:1008B00011240BB60F922F933F934F935F936F9337
:1008C0007F938F939F93AF93BF93EF93FF93E091A9
:1008D0000802F09109021995FF91EF91BF91AF9134
:1008E0009F918F917F916F915F914F913F912F9148
:1008F0000F900BBE0F900FBE0F901F9018951F9278
:100900000F920FB60F9211240BB60F922F933F93B5
:100910004F935F936F937F938F939F93AF93BF9307
:10092000EF93FF93E0910602F09107021995FF9172
:10093000EF91BF91AF919F918F917F916F915F9157
:100940004F913F912F910F900BBE0F900FBE0F90C4
:100950001F9018951F920F920FB60F9211240BB68D
:100960000F922F933F934F935F936F937F938F9348
:100970009F93AF93BF93EF93FF93E0910402F091A5
:1009800005021995FF91EF91BF91AF919F918F91C2
:100990007F916F915F914F913F912F910F900BBE7F
:1009A0000F900FBE0F901F901895CF92DF92EF928D
:1009B000FF920F931F93CF93DF937C016C0187E02D
:1009C000C80ED11CC0E0D0E0062F10E0B8010C2EFC
:1009D00002C0759567950A94E2F76170F6018191FE
:1009E0006F0131DD2196C430D10581F7C701DF9158
:1009F000CF911F910F91FF90EF90DF90CF90CBCDD3
:100A0000CF92DF92EF92FF920F931F93CF93DF93DA
:100A1000EC01F62E642F8C8116DD8D818F3F11F055
:100A200060E011DD8F850F2D10E084FF23C06E0183
:100A300087E0C80ED11CE12CF12CB8010E2C02C0AD
:100A4000759567950A94E2F76170F60181916F01DF
:100A5000FADCFFEFEF1AFF0A88E0E816F10469F705
:100A6000CE01DF91CF911F910F91FF90EF90DF901A
:100A7000CF9091CDB80184E0759567958A95E1F79F
:100A8000CE0193DF6F2DCE01DF91CF911F910F919A
:100A9000FF90EF90DF90CF9088CF41E0B1DF81E011
:100AA00090E0089540E0ACCF61E0FCDF8BE39FE194
:100AB0000197F1F708950F931F93CF9368EC70E0BF
:100AC00080E090E02BDD86EC94E0EEDF60E080E0FB
:100AD00043D381E293E054D361E080E03DD383E3EC
:100AE00093E04ED363E080E037D387E493E048D3CC
:100AF00010924D0410924C0481E08093340408E07D
:100B000010E080914C0490914D0408970CF04AC07D
:100B1000B1D3C82F809335048823A9F08A3299F085
:100B2000833289F080914C0490914D04019690930A
:100B30004D0480934C04FC01ED5BFB4FC08362E0ED
:100B40000BD38C2F1ED32091350480914C049091AF
:100B50004D04233289F4833091059CF220914104A5
:100B6000309142042817390711F010923404109381
:100B70004D0400934C04C5CF2A3209F0C2CF181699
:100B800019060CF0BECF62E0E7D28BE093E0F8D21A
:100B900080914C0490914D04019790934D04809363
:100BA0004C04AFCF40914104509142042091340451
:100BB00080E090E0841795076CF40196DC01AD5B52
:100BC000BB4FFC01E85CFB4F6C913081631791F3E4
:100BD00020E0F0CF90934D0480934C042093340494
:100BE00021116CC080913604909137040196909346
:100BF00037048093360468EC70E080E090E08EDC8F
:100C000086EC94E051DF60E080E0A6D28BE593E0D3
:100C1000B7D261E080E0A0D28DE693E0B1D261E08E
:100C200086E09AD28091360490913704B5D261E083
:100C300087E092D284E793E0A3D268EC70E080E092
:100C400090E06CDC86EC94E02FDF8091360490918C
:100C5000370403975CF186EC94E026DF61E08BE1DA
:100C6000F2DB60E080E078D28CE793E089D261E04B
:100C700080E072D28DE893E083D262E080E06CD2B3
:100C800084EA93E07DD263E080E066D285EB93E076
:100C900077D268EB7BE080E090E040DC1092370494
:100CA0001092360460E08BE1CEDB05DF04DF86ECDA
:100CB00094E0FADECF911F910F9188CCCF911F91D4
:100CC0000F9108950F931F93CF9308E010E086ECE7
:100CD00094E0EADE60E080E03FD282EC93E050D224
:100CE00061E080E039D282ED93E04AD263E080E0B7
:100CF00033D283EE93E044D281E0809334041092A7
:100D000042041092410410924D0410924C048091C0
:100D10004C0490914D0408970CF04AC0ABD2C82FF8
:100D200080933504882399F380914C0490914D046D
:100D3000CA3219F1C332D1F09C012F5F3F4F30937B
:100D40004D0420934C0480914104909142040196FB
:100D50009093420480934104F901ED5BFB4FC08303
:100D600062E0822FF9D18C2F0CD2D1CF03977CF285
:100D700010934D0400934C04CACF181619063CF684
:100D800062E0EAD18BE093E0FBD180914C0490913A
:100D90004D04019790934D0480934C04809141043D
:100DA0009091420401979093420480934104AFCF05
:100DB00068EC70E080E090E0B1DB86EC94E074DEFB
:100DC00060E080E0C9D188EF93E0DAD161E080E0B3
:100DD000C3D182ED93E0D4D163E080E0BDD183EE56
:100DE00093E0CED110924D0410924C0480914C04AB
:100DF00090914D0408970CF04AC03CD2C82F8093C4
:100E000035048823A9F08A3299F0833289F08091E1
:100E10004C0490914D04019690934D0480934C04A2
:100E2000FC01E85CFB4FC08362E096D18C2FA9D116
:100E30002091350480914C0490914D04233289F423
:100E4000833091059CF2209141043091420428178F
:100E5000390711F01092340410934D0400934C04A0
:100E6000C5CF2A3209F0C2CF181619060CF0BECF32
:100E700062E072D18BE093E083D180914C04909139
:100E80004D04019790934D0480934C04AFCF409153
:100E90004104509142042091340480E090E0841792
:100EA00095076CF40196DC01A85CBB4FFC01ED5B7F
:100EB000FB4F6C913081631791F320E0F0CF90935A
:100EC0004D0480934C042093340421111AC068EC23
:100ED00070E080E090E022DB86EC94E0E5DD60E00D
:100EE00080E03AD18CE094E04BD161E080E034D1F5
:100EF00082E294E045D168EC70E080E090E00EDBA7
:100F0000E6CECF911F910F91089560E086E19BDAC4
:100F100060E087E198DA60E088E195DA60E089E1F5
:100F200092CA96E0899FD0011124A95ABB4F90968E
:100F30007C936E935F9791E091969C93919790919B
:100F4000C304E091C404F091C504992339F03097AB
:100F500051F0811108C08091730404C0309719F0DA
:100F60005C968C9119940895009761F0FC010190B2
:100F70000020E9F73197AF01481B590BBC0186EC03
:100F800094E097C980E090E008950F931F93CF936A
:100F9000DF93C82FD62F86E0C89FF0011124E95AAD
:100FA000FB4F11A2878D90A181309105E1F01CF4D7
:100FB000892B49F03FC08230910591F10397D1F51B
:100FC00060E070E031C06623A9F161E070E08C2F31
:100FD000A8DF3DDB6093AF047093B0048093B1044D
:100FE0009093B20427C033DB0091AF041091B0049A
:100FF0002091B1043091B204AB01BC01401B510BF4
:10100000620B730B8091C1049091C204A0E0B0E028
:1010100084179507A607B70718F462E070E004C0CC
:10102000D11108C063E070E08C2FDF91CF911F9148
:101030000F9177CFDF91CF911F910F910895EF928C
:10104000FF920F931F93CF93DF93EC01423018F080
:101050008F8588608F874B8B1C8A80E48D8B6E8B8D
:1010600070E0605C7F4F6F8B61E08C811BDA8D815B
:101070008F3F11F061E016DA61E08E8113DA7E01B4
:1010800087E0E80EF11C00E010E08F8584FD03C0CE
:1010900084E090E002C088E090E00817190744F46B
:1010A00061E0F70181917F01FDD90F5F1F4FEDCF07
:1010B0008BE39DE00197F1F760E08C81C4D960E09B
:1010C0008E81C1D98D818F3F11F060E0BCD96F85D1
:1010D00064FD19C063E0CE0168DC0BE416E4C801CE
:1010E0000197F1F763E0CE0160DCC8010197F1F7E9
:1010F00063E0CE015ADC83E592E00197F1F762E00C
:10110000CE0153DC13C06062CE01CCDC8BE496E4EC
:101110000197F1F76F856062CE01C4DC83E592E050
:101120000197F1F76F856062CE01BCDC6F8560626C
:10113000CE01B8DC84E0888B6CE0CE01B3DCCE015C
:10114000B3DC82E0898B66E0CE01DF91CF911F9105
:101150000F91FF90EF90A6CC643008F063E090917F
:10116000D904691710F06FEF690FE62FF0E0EA532A
:10117000FB4F9489682F690F606886EC94E092CCED
:10118000F3CEE091C604F091C7040190F081E02D08
:10119000682F86EC94E019948F929F92AF92BF9241
:1011A000CF92DF92EF92FF920F931F93CF93DF9333
:1011B000CDB7DEB7A1970FB6F894DEBF0FBECDBF97
:1011C0006C01990FEE08FF08F7FE26C08DE2D9DF0B
:1011D0008C0122273327A9012C193D094E095F09EB
:1011E00019A2CE0181967C019AE0892E912CA12C26
:1011F000B12CCA01B901A50194019CD5605DF7012C
:1012000062937F01211531054105510591F7CF0109
:10121000ABDE800F911F1BC0A701960119A28E01A2
:101220000F5D1F4F8AE0C82ED12CE12CF12CCA0192
:10123000B901A70196017ED5605DF80162938F0127
:10124000211531054105510591F7CF018DDEA1969C
:101250000FB6F894DEBF0FBECDBFDF91CF911F91C7
:101260000F91FF90EF90DF90CF90BF90AF909F9045
:101270008F9008956F927F928F929F92AF92BF92BC
:10128000CF92DF92EF92FF920F931F93CF93DF9352
:1012900081E08093C304DBD90091B3041091B404BE
:1012A0002091B5043091B604AB01BC01401B510B39
:1012B000620B730B8091BF049091C004A0E0B0E07A
:1012C00084179507A607B70708F003C1C0E080910F
:1012D000BD04C81758F4E091B904F091BA04EC0FBA
:1012E000F11D62E08081DED8CF5FF1CF712C812CBF
:1012F000912C540183948091BE04781608F05AC052
:10130000072D10E0E091BB04F091BC04E00FF11F49
:1013100061E08081C7D8E091BB04F091BC04E00F8C
:10132000F11F60E080818FD8D501C401072C04C073
:10133000880F991FAA1FBB1F0A94D2F76C017C016A
:10134000E094F094612C8091BD046816F0F4C62DF1
:10135000D0E0E091B904F091BA04EC0FFD1F808158
:101360004AD82496CC0FDD1FC95ADB4F892B29F4AC
:10137000888199818C299D2904C0888199818E2139
:101380009F21998388836394DECFE091BB04F09121
:10139000BC04E00FF11F61E0808155D88091BB044F
:1013A0009091BC04FC01E00FF11F60E080817AD8CD
:1013B0007394A1CFE3E7F4E08FEF9FEF23813481B3
:1013C000232B21F41082928381831582369624E0A8
:1013D000EF3AF20799F710E096E0F92E8091BD04FC
:1013E000181708F051C000E0C12FD0E0CC0FDD1F6E
:1013F000C15ADB4F2091BE04021708F043C0688138
:101400007981002E02C0769567950A94E2F76170A3
:101410007727129F90011124200F311DE091B7040E
:10142000F091B804E20FF31F4081E7E5F4E080E0BB
:10143000A58DB68DA217B30711F461701AC08F5F26
:1014400036968A30A9F7672BD9F0E3E7F4E080E01D
:1014500090E0508151110FC0F89EF001F99EF00DFF
:101460001124E95AFB4F448F368F258F10A2178E17
:1014700061E08BDD05C0019636968A30910549F70B
:101480000F5FB8CF1F5FAACF80E090E0C0E0FC0103
:10149000E95AFB4F21A12111C1E006968C33910539
:1014A000B1F7D5D86093B3047093B4048093B504B6
:1014B0009093B604CC2369F080917804882349F096
:1014C0008091760490917704019719F480917304C8
:1014D00003C01092C30480E0DF91CF911F910F9160
:1014E000FF90EF90DF90CF90BF90AF909F908F9044
:1014F0007F906F900895789484B5826084BD84B5A0
:10150000816084BD85B5826085BD85B5816085BDFE
:1015100080916E00816080936E00109281008091B6
:10152000810082608093810080918100816080933E
:101530008100809180008160809380008091B10063
:1015400084608093B1008091B00081608093B0008E
:1015500080919100826080939100809191008160E0
:1015600080939100809190008160809390008091A1
:10157000A10082608093A1008091A100816080938E
:10158000A1008091A00081608093A0008091210142
:1015900082608093210180912101816080932101EB
:1015A0008091200181608093200180917A00846085
:1015B00080937A0080917A00826080937A00809193
:1015C0007A00816080937A0080917A0080688093AD
:1015D0007A001092C10044E064E186EC94E02FDDD3
:1015E00060E082E20E94520260E085E10E945202C5
:1015F00060E085E20E94520260E084E20E945202B2
:1016000060E080E20E94520261E08FE20E9452029A
:1016100061E08EE20E94520261E086E10E94520285
:1016200061E087E10E94520261E088E10E9452027B
:1016300061E089E10E94520261E086E20E9452026A
:1016400061E087E00E94520261E08BE10E94520259
:1016500061E08EE10E9452020E94E60286EE92E074
:101660009093050280930402809169008C7F8160D1
:1016700080936900E89A86EC94E016DA60E080E0F6
:101680006BDD89E392E07CDD61E080E065DD83E491
:1016900092E076DD62E080E05FDD83E592E070DD80
:1016A00063E080E059DD8BE592E06ADD64EF71E094
:1016B00080E090E00E948E0205DBFDD968EC70E0CE
:1016C00080E090E00E948E0286EC94E0EDD90E94CA
:1016D000E60263E085E040DD88E692E051DD9AE0D5
:1016E000792E0FEF13E02DE0E22E22E0F22E30E013
:1016F000C32E30E0D32E1092370410923604BADD98
:1017000080933504833209F4DDDA84E20E94FB0120
:101710005C0185E20E94FB014C0182E20E94FB0118
:10172000EC0160E080E018DD87E792E029DD809140
:101730003404882399F0A114B10481F0209771F446
:1017400061E08FE20E94230260E08EE20E942302A9
:1017500060E085E001DD8DE792E012DD80913404E8
:10176000882399F08114910481F0209771F460E04E
:101770008FE20E94230260E08EE20E94230260E07A
:1017800085E0EADC85E892E0FBDC80913404882384
:1017900099F08114910481F0209771F060E08FE25C
:1017A0000E94230261E08EE20E94230260E085E055
:1017B000D3DC8DE892E0E4DC80913404882361F08E
:1017C000A114B104A1F0209791F080E20E94FB01E6
:1017D000892B09F400C205C0A114B10441F020977F
:1017E00031F080E20E94FB01892B09F003C2809155
:1017F0003404811113C08114910481F0209771F099
:1018000060E08FE20E94230260E08EE20E942302E9
:1018100060E085E0A1DC85E892E0B2DC80913404F0
:10182000811112C0892881F0209771F460E08FE265
:101830000E94230261E08EE20E94230260E085E0C4
:101840008BDC8DE892E09CDC80913404811119C01E
:10185000AB28B9F0CD2BA9F460E08FE20E942302FF
:1018600060E08EE20E94230260E085E075DC85E99D
:1018700092E086DC64EF71E080E090E00E948E02EE
:101880001AD982E20E94FB0160E0892B09F48EC123
:101890008CE062DC8DE992E073DC84E40E94DA0182
:1018A00097FD0196EC01D595C7955E0121E0A21A3E
:1018B000B10861E080E050DC86EA92E061DC61E042
:1018C00085E04ADCC50168DC39E1A316B1044CF4BB
:1018D00061E087E041DC8CEA92E052DCC0E0D0E0DD
:1018E00021C0CE014A97059748F461E087E034DCD7
:1018F00086EB92E045DCC3ECD0E014C0CE014F97FC
:1019000061E0059740F487E027DC80EC92E038DC6A
:10191000C1EED0E007C087E01FDC8AEC92E030DC4B
:10192000CFEFD0E061E087E00E945202209711F4EF
:1019300060E004C0CF3FD10529F461E087E00E9458
:101940002302AAC0F701849190E0FC013197E231B3
:10195000F10508F09CC08827EC57FF4F8F4F0CC251
:1019600084B5806884BDC7BD97C084B5806284BDDE
:10197000C8BD92C080918000806880938000D09321
:101980008900C093880088C0809180008062809325
:101990008000D0938B00C0938A007EC0809180002D
:1019A000886080938000D0938D00C0938C0074C0B9
:1019B0008091B00080688093B000C093B3006CC089
:1019C0008091B00080628093B000C093B40064C086
:1019D00080919000806880939000D0939900C0938C
:1019E00098005AC080919000806280939000D093BC
:1019F0009B00C0939A0050C08091900088608093B3
:101A00009000D0939D00C0939C0046C08091A000A0
:101A100080688093A0008091A0008F7B8093A000BD
:101A2000D093A900C093A80037C08091A000806225
:101A30008093A000D093AB00C093AA002DC08091EA
:101A4000A00088608093A000D093AD00C093AC004C
:101A500023C080912001806880932001D0932901C8
:101A6000C093280119C080912001806280932001D9
:101A7000D0932B01C0932A010FC080912001886070
:101A800080932001D0932D01C0932C0105C0C03854
:101A9000D1050CF052CF4CCF85E40E94DA01FC0155
:101AA0007E9EC0017F9E900D1124B80130D1EB01C4
:101AB0006A30710511F4C9E0D0E062E080E04CDBEF
:101AC00084ED92E05DDB62E08CE046DBCE0164DB1E
:101AD000C230D105B4F461E086E10E94230261E0E6
:101AE00087E10E94230261E088E10E94230261E015
:101AF00089E10E94230262E08EE02EDB81EE92E01B
:101B000019C0CE0102970297B8F460E086E10E9406
:101B1000230261E087E10E94230261E088E10E94E4
:101B2000230261E089E10E94230262E08EE014DB7F
:101B300088EE92E025DB48C0CE0104970297B0F40E
:101B400060E086E10E94230260E087E10E942302B8
:101B500061E088E10E94230261E089E10E942302A2
:101B600062E08EE0F9DA8FEE92E0E4CF26972297DA
:101B7000B0F460E086E10E94230260E087E10E9409
:101B8000230260E088E10E94230261E089E10E9473
:101B9000230262E08EE0E0DA86EF92E0CBCFB5D9A7
:101BA00062E08EE0D9DA8DEF92E0C4CF8CE0D4DA37
:101BB00084E093E0E5DA61E087E00E94520260E0B1
:101BC00087E00E942302A1D9C114D10409F493CD66
:101BD0000E94000090CD60E08FE20E94230260E04E
:101BE0008EE20E94230260E085E0B6DA8DE093E0A9
:101BF000C7DAF7CD1092340461E08FE20E9423022D
:101C000060E08EE20E94230260E085E0A5DA8DE7C5
:101C100092E0B6DAECCD1092C9041092C80481E3C8
:101C200092E09093C7048093C60485E38093CA042E
:101C30008FEF8093CB0484E38093CC0483E3809381
:101C4000CD0482E38093CE0481E38093CF0480E3CC
:101C50008093D0041092D1041092D2041092D30435
:101C60001092D4041092D50441E060E186EC94E037
:101C7000E6D91092590410925D0410925C041092FF
:101C80005E0487E292E0909358048093570480E0CA
:101C900090E0FC01E95AFB4F148E10A2178E11A29E
:101CA00006968C339105A9F783E192E09093BA04EC
:101CB0008093B90480E192E09093BC048093BB04CC
:101CC00084E08093BD0483E08093BE0487E192E0CA
:101CD0009093B8048093B7048AE090E09093C00496
:101CE0008093BF0484EF91E09093C2048093C10479
:101CF0001092C5041092C4041092B3041092B4045C
:101D00001092B5041092B6041092C304089597FB84
:101D1000072E16F4009406D077FD08D035D007FCC6
:101D200005D03EF4909581959F4F089570956195EB
:101D30007F4F0895A1E21A2EAA1BBB1BFD010DC007
:101D4000AA1FBB1FEE1FFF1FA217B307E407F5076B
:101D500020F0A21BB30BE40BF50B661F771F881F47
:101D6000991F1A9469F760957095809590959B01DD
:101D7000AC01BD01CF010895EE0FFF1F881F8BBF7F
:101D80000790F691E02D1994AA1BBB1B51E107C0E7
:101D9000AA1FBB1FA617B70710F0A61BB70B881FFB
:101DA000991F5A95A9F780959095BC01CD0108958A
:0C1DB00081E090E0F89400C0F894FFCFB0
:101DBC00C602C602C602C602C602C602C602C602D7
:101DCC002928272A2B2C2D31323334353637383904
:101DDC002A302300000000E302DE02E102000000D2
:101DEC00004D055901C802C70248656C6C6F205341
:101DFC00697200526F6F6D204175746F6D617469FB
:101E0C006F6E0042792034373135004C657427737E
:101E1C0020537461727421005072657373232072A5
:101E2C0065737420505700446F6F7220004F7065BB
:101E3C006E696E67004F70656E65642000436C6F51
:101E4C0073696E67004C6F636B65642000204F6391
:101E5C0063706965640054454D5020002046616EE6
:101E6C002053746F70002046616E204C4F57200039
:101E7C002046616E204D696420002046616E20482A
:101E8C00494748004C69676874204C6576656C203E
:101E9C00002034204C4544002033204C4544002085
:101EAC0032204C4544002031204C45440020302049
:101EBC004C45440020456D707479202000436C6FB4
:101ECC007365642000666972652000736166652025
:101EDC0000456E7465722050617373776F72642E57
:101EEC002E2E003320747269616C73202C636F6E1C
:101EFC006669726D202300202020202020202020C5
:101F0C002064656C65746520202A0057726F6E67BB
:101F1C002050617373776F72642E2E2E0074726969
:101F2C00616C2000206661696C6564003320546923
:101F3C006D65732057726F6E672E2E2E0054686578
:101F4C006966206D6F646520646F6F72206C6F63BF
:101F5C006B65640043616C6C696E67206F776E65AE
:101F6C00722E2E2E0053454520796F752034373153
:101F7C0035005365742050617373776F72642E2E25
:101F8C002E00332054696C6C2038206E756D6265A0
:101F9C00727300636F6E6669726D2023202C20644F
:101FAC00656C657465202A00436F6E6669726D20DE
:101FBC0050617373776F72642E2E2E0057726F6E92
:101FCC006720636F6E6669726D6174696F6E2E2E19
:101FDC002E005265736574696E6720416761696E86
:041FEC002E2E2E0067
:00000001FF
