:100000000C9462000C948A000C948A000C948A0070
:100010000C948A000C948A000C948A000C948A0038
:100020000C948A000C948A000C948A000C948A0028
:100030000C948A000C948A000C948A000C948A0018
:100040000C9421030C948A000C948A000C948A006E
:100050000C948A000C948A000C948A000C948A00F8
:100060000C948A000C948A000000000023002600F3
:10007000290000000008000201000003040700003E
:1000800000000000000000000000250028002B00F8
:1000900000000000240027002A00040404040404D3
:1000A0000404020202020202030303030303010227
:1000B00004081020408001020408102001020408F6
:1000C00010209F0611241FBECFEFD8E0DEBFCDBFAA
:1000D00011E0A0E0B1E0E4E9FDE002C005900D927E
:1000E000A037B107D9F721E0A0E7B1E001C01D9228
:1000F000A539B207E1F710E0C2E6D0E004C02197CD
:10010000FE010E94BD06C136D107C9F70E946B03EC
:100110000C94C8060C94000090E0FC01E255FF4FDF
:100120002491FC01E656FF4F8491882399F090E0DA
:10013000880F991FFC01E057FF4FA591B491FC0176
:10014000EA57FF4F859194918FB7F894EC91E22B89
:10015000EC938FBF0895CF92DF92EF92FF920F93AF
:100160001F93CF93DF936C017A018B01C0E0D0E045
:10017000CE15DF0589F0D8016D918D01D601ED9185
:10018000FC910190F081E02DC6010995892B11F4B5
:100190007E0102C02196ECCFC701DF91CF911F9164
:1001A0000F91FF90EF90DF90CF900895833081F012
:1001B00028F4813099F08230A1F008958730A9F0B9
:1001C0008830B9F08430D1F4809180008F7D03C0F5
:1001D000809180008F7780938000089584B58F7719
:1001E00002C084B58F7D84BD08958091B0008F7763
:1001F00003C08091B0008F7D8093B0000895CF93AD
:10020000DF93282F30E0F901EE58FF4F8491F90178
:10021000E255FF4FD491F901E656FF4FC491CC232C
:1002200091F081110E94D600EC2FF0E0EE0FFF1F3D
:10023000E859FF4FA591B491EC91ED2381E090E056
:1002400021F480E002C080E090E0DF91CF9108953A
:100250001F93CF93DF93282F30E0F901EE58FF4F23
:100260008491F901E255FF4FD491F901E656FF4F11
:10027000C491CC23C9F0162F81110E94D600EC2F17
:10028000F0E0EE0FFF1FEA57FF4FA591B4918FB733
:10029000F894111105C09C91ED2FE095E92302C05F
:1002A000EC91ED2BEC938FBFDF91CF911F910895CF
:1002B0001F93CF93DF93182FEB010E948C002097A0
:1002C00011F460E004C0CF3FD10539F461E0812F23
:1002D000DF91CF911F910C942801E12FF0E0EE58AF
:1002E000FF4FE491E330F9F048F4E130B9F0E23047
:1002F000A1F584B5806284BDC8BD34C0E730E9F0A3
:10030000E83019F1E43049F58091800080628093F3
:100310008000D0938B00C0938A0024C084B580688D
:1003200084BDC7BD1FC0809180008068809380001D
:10033000D0938900C093880015C08091B000806878
:100340008093B000C093B3000DC08091B000806274
:100350008093B000C093B40005C0C038D1050CF044
:10036000B5CFAFCFDF91CF911F910895CF93DF939A
:10037000EC0160E08E810E94280161E08E810E9484
:10038000280160E08E810E9428018BE891E00197AE
:10039000F1F7DF91CF910895CF92DF92EF92FF9224
:1003A0000F931F93CF93DF937C016C0187E0C80EFE
:1003B000D11CC0E0D0E0062F10E0B8010C2E02C026
:1003C000759567950A94E2F76170F60181916F0166
:1003D0000E9428012196C430D10579F7C701DF9129
:1003E000CF911F910F91FF90EF90DF90CF900C94E1
:1003F000B601CF92DF92EF92FF920F931F93CF93AC
:10040000DF93EC01F62E642F8C810E9428018D81F0
:100410008F3F19F060E00E9428018F850F2D10E0BA
:1004200084FF25C06E0187E0C80ED11CE12CF12CA1
:10043000B8010E2C02C0759567950A94E2F76170B9
:10044000F60181916F010E942801FFEFEF1AFF0A68
:1004500088E0E816F10461F7CE01DF91CF911F919A
:100460000F91FF90EF90DF90CF900C94B601B80100
:1004700084E0759567958A95E1F7CE010E94CC01DD
:100480006F2DCE01DF91CF911F910F91FF90EF90D3
:10049000DF90CF900C94CC0141E00E94F90181E003
:1004A00090E0089540E00C94F901EF92FF920F93D1
:1004B0001F93CF93DF93EC01623018F08F85886033
:1004C0008F876B8B1C8A80E48D8B80E18E8B80E51F
:1004D0008F8B8C810E948C008D818F3F11F00E9448
:1004E0008C008E810E948C007E0187E0E80EF11C5A
:1004F00000E010E08F8584FD03C084E090E002C03E
:1005000088E090E00817190744F4F70181917F0112
:100510000E948C000F5F1F4FEDCF8BE39DE0019792
:10052000F1F760E08C810E94280160E08E810E94DA
:1005300028018D818F3F19F060E00E9428016F85AE
:1005400064FD1DC063E0CE010E94CC010BE416E403
:10055000C8010197F1F763E0CE010E94CC01C80108
:100560000197F1F763E0CE010E94CC0183E592E0B0
:100570000197F1F762E0CE010E94CC0116C06062E3
:10058000CE010E9452028BE496E40197F1F76F8549
:100590006062CE010E94520283E592E00197F1F77A
:1005A0006F856062CE010E9452026F856062CE014B
:1005B0000E94520284E0888B6CE0CE010E945202BD
:1005C00061E0CE010E9452028BE39FE10197F1F7B7
:1005D00082E0898B66E0CE01DF91CF911F910F9170
:1005E000FF90EF900C945202643008F063E0909119
:1005F0009001691710F06FEF690FE62FF0E0E358F4
:10060000FE4F9489682F690F60688DE791E00C9424
:100610005202089580E090E00895009769F0FC018F
:1006200001900020E9F73197AF01481B590BBC013D
:100630008DE791E00C94AB0080E090E008950E947B
:10064000C3061F920F920FB60F9211242F933F9360
:100650008F939F93AF93BF93809175019091760193
:10066000A0917701B09178013091740123E0230FBC
:100670002D3720F40196A11DB11D05C026E8230FDA
:100680000296A11DB11D2093740180937501909372
:100690007601A0937701B0937801809170019091D9
:1006A0007101A0917201B09173010196A11DB11D5C
:1006B0008093700190937101A0937201B0937301C4
:1006C000BF91AF919F918F913F912F910F900FBE4E
:1006D0000F901F901895789484B5826084BD84B57E
:1006E000816084BD85B5826085BD85B5816085BD2D
:1006F00080916E00816080936E00109281008091E5
:10070000810082608093810080918100816080936C
:100710008100809180008160809380008091B10091
:1007200084608093B1008091B00081608093B000BC
:1007300080917A00846080937A0080917A00826050
:1007400080937A0080917A00816080937A00809112
:100750007A00806880937A001092C10062E08DE791
:1007600091E00E94550260E080E00E94F40284E182
:1007700091E00E940D0361E080E00E94F4028CE1B0
:1007800091E00E940D038DE00E948C008CE00E949D
:100790008C008BE00E948C008AE00E948C0089E033
:1007A0000E948C0088E00E948C0040E0642E40E0B3
:1007B000742E55E5A52EB12C88248A94912CCC2436
:1007C000C394D12CE8E2EE2EF12C8FE00E94FF00C2
:1007D000892B11F18091060190910701892BE1F09D
:1007E00080910401909105018B5A9F4F8F3F910595
:1007F00009F00CF4A9C09092050180920401809147
:1008000004019091050190930301809302011092DD
:100810000701109206010CC08EE00E94FF00892B98
:1008200039F08091000190910101892B09F091C06C
:100830008FE00E94FF00892B21F4D0920701C09223
:1008400006018EE00E94FF00892B21F4D092010165
:10085000C0920001809104019091050160E085350E
:10086000910531F487E00E94F40282E291E017C022
:100870008A3A910531F487E00E94F40287E291E020
:100880000EC08F3F910531F487E00E94F4028CE2A4
:1008900091E005C087E00E94F40281E391E00E94AC
:1008A0000D03C0910401D091050180917B019091CD
:1008B0007C01BE01681B790B8BE00E9458010091FE
:1008C0000201109103018091790190917A01B801A0
:1008D000681B790B8AE00E94580183E10E94FF00A7
:1008E000892B09F055C082E10E94FF00892B09F095
:1008F0004FC080E10E94FF00892B09F049C081E1CF
:100900000E94FF00892B09F043C060E08DE00E9447
:10091000280160E08CE00E94280160E089E00E94EC
:10092000280160E088E00E94280110927A0110926C
:10093000790110927C0110927B0161E086E00E94B7
:10094000F4028AE391E0BFC1909305018093040112
:1009500056CF809104019091050185559109853507
:1009600091058CF4B0920501A092040180910401DC
:10097000909105019093030180930201109201016F
:100980001092000155CF9093050180930401EECFA2
:1009900083E10E94FF00892B81F182E10E94FF0028
:1009A000892B59F580E10E94FF00892B31F181E10B
:1009B0000E94FF00892B09F517FF02C00F5F1F4F30
:1009C0001595079510937C0100937B0161E08DE004
:1009D0000E94280160E08CE00E94280161E089E02B
:1009E0000E94280160E088E00E94280161E086E022
:1009F0000E94F40280E491E066C183E10E94FF005E
:100A0000892B81F582E10E94FF00892B59F180E159
:100A10000E94FF00892B31F181E10E94FF00892BA8
:100A200009F517FF02C00F5F1F4F1595079510932B
:100A30007C0100937B0161E08CE00E94280160E072
:100A40008DE00E94280161E088E00E94280160E0BA
:100A500089E00E94280161E086E00E94F40286E4B9
:100A600091E031C183E10E94FF00892B71F182E1A5
:100A70000E94FF00892B49F580E10E94FF00892B2D
:100A800021F581E10E94FF00892BF9F0D7FD219625
:100A9000D595C795D0937A01C093790161E08DE037
:100AA0000E94280160E08CE00E94280161E089E05A
:100AB0000E94280160E088E00E94280161E086E051
:100AC0000E94F4028CE491E0FEC083E10E94FF00EA
:100AD000892B71F582E10E94FF00892B49F180E1A9
:100AE0000E94FF00892B21F581E10E94FF00892BE4
:100AF000F9F0D7FD2196D595C795D0937A01C0938B
:100B0000790161E08CE00E94280160E08DE00E94A4
:100B1000280161E088E00E94280160E089E00E94ED
:100B2000280161E086E00E94F40282E591E0CBC0FA
:100B300083E10E94FF00892B71F182E10E94FF0096
:100B4000892B49F580E10E94FF00892B21F581E185
:100B50000E94FF00892BF9F461E08DE00E942801DA
:100B600060E08CE00E94280161E089E00E94280199
:100B700060E088E00E94280110927A0110927901C9
:100B800010927C0110927B0161E086E00E94F402E9
:100B900088E591E098C083E10E94FF00892B71F500
:100BA00082E10E94FF00892B49F180E10E94FF0051
:100BB000892B21F581E10E94FF00892BF9F461E086
:100BC0008CE00E94280160E08DE00E94280161E035
:100BD00088E00E94280160E089E00E9428011092CC
:100BE0007A011092790110927C0110927B0161E0F0
:100BF00086E00E94F4028EE591E065C083E10E94E8
:100C0000FF00892B71F582E10E94FF00892B49F5D5
:100C100080E10E94FF00892B21F181E10E94FF0009
:100C2000892BF9F461E08CE00E94280160E08DE0FE
:100C30000E94280161E089E00E94280160E088E0CC
:100C40000E942801F0927A01E0927901F0927C01F1
:100C5000E0927B0161E086E00E94F40284E691E08C
:100C600032C083E10E94FF00892BB1F582E10E942E
:100C7000FF00892B89F580E10E94FF00892B61F537
:100C800081E10E94FF00892B39F161E08DE00E9433
:100C9000280160E08CE00E94280161E088E00E9469
:100CA000280160E089E00E942801F0927A01E09238
:100CB0007901F0927C01E0927B0161E086E00E9484
:100CC000F4028AE691E00E940D036114710409F4B4
:100CD0007CCD0E94000079CD83E10E94FF00892B2A
:100CE00029F082E10E94FF00892B51F481E10E94EA
:100CF000FF00892B51F380E10E94FF00892B29F32B
:100D000060E08DE00E94280160E08CE00E942801F4
:100D100060E089E00E94280160E088E00E942801EC
:100D200010927A011092790110927C0110927B014D
:100D300061E086E00E94F40284E391E0C4CFEDE735
:100D4000F1E0138212828CE091E09183808385E050
:100D500084838FEF858384E0868383E0878382E0CA
:100D6000808781E081871286138614861586168611
:100D7000178661E0CF010C945502EE0FFF1F05901E
:100D8000F491E02D099481E090E0F8940C94C80669
:040D9000F894FFCF05
:100D94000100550055000100000000004C02AB00AA
:100DA4000A0309035370656564206D004469722E5B
:100DB4002000696E202000696420200061782020D2
:100DC40000616E206572726F720073746F70200020
:100DD400462E4C202000422E4C202000462E52202D
:100DE4002000422E5220200066726F6E74006261F1
:100DF400636B20006C656674200072696768740018
:00000001FF
