:1000000026C10000A7C400007AC400004DC400004F
:1000100020C40000F3C30000C6C3000099C3000061
:100020006CC3000045C1000043C1000041C1000095
:100030003FC100003DC100003BC1000039C10000CC
:1000400037C1000035C1000033C1000031C10000DC
:100050002FC100002DC100002BC1000004C300000F
:1000600027C1000025C1000023C1000021C10000FC
:100070001FC100001DC100001BC1000019C100000C
:1000800017C1000015C1000013C1000011C100001C
:100090000FC100000DC100000BC1000009C100002C
:1000A00007C1000005C1000003C1000001C100003C
:1000B000FFC00000FDC00000FBC00000F9C0000050
:1000C000F7C00000F5C00000F3C00000F1C0000060
:1000D000EFC00000EDC00000EBC00000E9C0000070
:1000E000E7C000009F01A201910195019B01D90188
:1000F000A601AA01B001B401B801BE01C201C60146
:10010000D901CC01D001D401B00CB50CBA0CC40C8F
:10011000CE0C470DD80CE00CE80CF20CFC0C060DD4
:10012000150D1F0D470D290D330D3D0D000021004C
:10013000240027002A002D003000330001010000B8
:10014000040107010A0100002200250028002B00FD
:100150002E003100340002010000050108010B01EE
:10016000000020002300260029002C002F00320070
:100170000001000003010601090105050505070549
:1001800008080808020202020A0A08080404040413
:10019000010101010101010103030303030303033F
:1001A000040707070C0C0C0C0C0C0C0C02020202CE
:1001B00006060606060606060B0B0B0B0B0B0B0BB7
:1001C0000102102020080810204010204080020169
:1001D000020108040201010204081020408080404E
:1001E000201008040201800402018040201008044D
:1001F00002010804020101020408102040800102EB
:1002000004081020408000000A0B02090C0D0E08A3
:1002100007030401000000000000000000000000CF
:1002200000000000000000000000000000000000CE
:10023000000012111000000000000000000000008B
:100240000000000000000000000000000B0E112460
:100250001FBECFEFD1E2DEBFCDBF00E00CBF14E088
:10026000A0E0B2E0ECEBFDE100E00BBF02C00790C4
:100270000D92A433B107D9F724E0A4E3B4E001C0A0
:100280001D92AE3DB207E1F711E0C7E2D1E000E018
:1002900006C021970109802FFE010E94BC0EC632C4
:1002A000D10780E00807A9F70E947B0A0C94DC0EB6
:1002B000A7CECF92DF92EF92FF920F931F93CF932F
:1002C000DF936C017A018B01C0E0D0E0CE15DF0531
:1002D00089F0D8016D918D01D601ED91FC910190CD
:1002E000F081E02DC6011995892B11F47E0102C021
:1002F0002196ECCFC701DF91CF911F910F91FF9015
:10030000EF90DF90CF90089590E0FC013197E231BB
:10031000F10508F04EC08827EE58FF4F8F4F0C9420
:10032000BC0E809180008F7703C0809180008F7D0C
:1003300080938000089580918000877FF9CF84B5F5
:100340008F7702C084B58F7D84BD08958091B00001
:100350008F7703C08091B0008F7D8093B0000895A7
:10036000809190008F7707C0809190008F7D03C0AF
:1003700080919000877F8093900008958091A000E5
:100380008F7707C08091A0008F7D03C08091A0006F
:10039000877F8093A0000895809120018F7707C008
:1003A000809120018F7D03C080912001877F809301
:1003B00020010895863308F0865390917B00282F02
:1003C0002870977F922B90937B0087708064809336
:1003D0007C0080917A00806480937A0080917A001A
:1003E00086FDFCCF809178002091790090E0922BDF
:1003F00008950E94D80ECF93DF93282F30E0F901A3
:10040000EA5FFD4F8491F901E054FE4FD491F90168
:10041000E658FE4FC491CC2389F0811175DFEC2F93
:10042000F0E0EE0FFF1FE05AFE4FA591B491EC9162
:10043000ED2381E090E021F480E002C080E090E0D4
:10044000DF91CF9108951F93CF93DF93282F30E052
:10045000F901EA5FFD4F8491F901E054FE4FD49118
:10046000F901E658FE4FC491CC23C1F0162F81113B
:100470004BDFEC2FF0E0EE0FFF1FEA5BFE4FA59184
:10048000B4918FB7F894111105C09C91ED2FE095B0
:10049000E92302C0EC91ED2BEC938FBFDF91CF915C
:1004A0001F910895CF93DF9390E0FC01E054FE4F3D
:1004B0002491FC01E658FE4F8491882361F190E07D
:1004C000880F991FFC01E45DFE4FC591D491FC019A
:1004D000EA5BFE4FA591B491611109C09FB7F894F2
:1004E0008881209582238883EC912E230BC0623073
:1004F00061F49FB7F8943881822F80958323888395
:10050000EC912E2B2C939FBF06C08FB7F894E881F7
:100510002E2B28838FBFDF91CF9108958F929F92CA
:10052000AF92BF92CF92DF92EF92FF926B017C016C
:1005300069D04B015C01C114D104E104F104E9F07C
:1005400061D0DC01CB0188199909AA09BB09883E51
:100550009340A105B10578F321E0C21AD108E10862
:10056000F10888EE880E83E0981EA11CB11CC1140E
:10057000D104E104F10421F7DECFFF90EF90DF908A
:10058000CF90BF90AF909F908F9008950895089559
:1005900080E090E00895CF93DF93EC0160E08E81DE
:1005A00052DF61E08E814FDF60E08E814CDF8BE8AF
:1005B00091E00197F1F7DF91CF910895862F642F95
:1005C00042CF862F18CF862F642F6CCF85E113DFA3
:1005D000892B61F061E086E236DF61E08EE133DF96
:1005E00063E080E0B9D585E193E00BC060E086E28E
:1005F0002ADF60E08EE127DF63E080E0ADD58BE1AC
:1006000093E0BEC53FB7F894809153049091540491
:10061000A0915504B091560426B5A89B05C02F3F64
:1006200019F00196A11DB11D3FBFBA2FA92F982F18
:100630008827820F911DA11DB11DBC01CD0142E093
:10064000660F771F881F991F4A95D1F708952FB716
:10065000F89460914F0470915004809151049091EE
:1006600052042FBF08951F920F920FB60F921124BC
:100670002F933F938F939F93AF93BF9380914F049A
:1006800090915004A0915104B091520430914E04C5
:1006900023E0230F2D3720F40196A11DB11D05C0C5
:1006A00026E8230F0296A11DB11D20934E048093CE
:1006B0004F0490935004A0935104B093520480913E
:1006C000530490915404A0915504B091560401969E
:1006D000A11DB11D8093530490935404A09355041D
:1006E000B0935604BF91AF919F918F913F912F91FD
:1006F0000F900FBE0F901F9018951F920F920FB67C
:100700000F9211240BB60F922F933F934F935F9349
:100710006F937F938F939F93AF93BF93EF93FF93C9
:10072000E0910E02F0910F021995FF91EF91BF91A8
:10073000AF919F918F917F916F915F914F913F9179
:100740002F910F900BBE0F900FBE0F901F9018951A
:100750001F920F920FB60F9211240BB60F922F9388
:100760003F934F935F936F937F938F939F93AF9339
:10077000BF93EF93FF93E0910C02F0910D02199556
:10078000FF91EF91BF91AF919F918F917F916F9169
:100790005F914F913F912F910F900BBE0F900FBE25
:1007A0000F901F9018951F920F920FB60F92112461
:1007B0000BB60F922F933F934F935F936F937F935B
:1007C0008F939F93AF93BF93EF93FF93E0910202B8
:1007D000F09103021995FF91EF91BF91AF919F9115
:1007E0008F917F916F915F914F913F912F910F90DA
:1007F0000BBE0F900FBE0F901F9018951F920F9277
:100800000FB60F9211240BB60F922F933F934F9375
:100810005F936F937F938F939F93AF93BF93EF9368
:10082000FF93E0910002F09101021995FF91EF9181
:10083000BF91AF919F918F917F916F915F914F91F8
:100840003F912F910F900BBE0F900FBE0F901F90F6
:1008500018951F920F920FB60F9211240BB60F929C
:100860002F933F934F935F936F937F938F939F93B8
:10087000AF93BF93EF93FF93E0910A02F0910B02C5
:100880001995FF91EF91BF91AF919F918F917F91BA
:100890006F915F914F913F912F910F900BBE0F90F1
:1008A0000FBE0F901F9018951F920F920FB60F92C8
:1008B00011240BB60F922F933F934F935F936F9337
:1008C0007F938F939F93AF93BF93EF93FF93E091A9
:1008D0000802F09109021995FF91EF91BF91AF9134
:1008E0009F918F917F916F915F914F913F912F9148
:1008F0000F900BBE0F900FBE0F901F9018951F9278
:100900000F920FB60F9211240BB60F922F933F93B5
:100910004F935F936F937F938F939F93AF93BF9307
:10092000EF93FF93E0910602F09107021995FF9172
:10093000EF91BF91AF919F918F917F916F915F9157
:100940004F913F912F910F900BBE0F900FBE0F90C4
:100950001F9018951F920F920FB60F9211240BB68D
:100960000F922F933F934F935F936F937F938F9348
:100970009F93AF93BF93EF93FF93E0910402F091A5
:1009800005021995FF91EF91BF91AF919F918F91C2
:100990007F916F915F914F913F912F910F900BBE7F
:1009A0000F900FBE0F901F901895CF92DF92EF928D
:1009B000FF920F931F93CF93DF937C016C0187E02D
:1009C000C80ED11CC0E0D0E0062F10E0B8010C2EFC
:1009D00002C0759567950A94E2F76170F6018191FE
:1009E0006F0131DD2196C430D10581F7C701DF9158
:1009F000CF911F910F91FF90EF90DF90CF90CBCDD3
:100A0000CF92DF92EF92FF920F931F93CF93DF93DA
:100A1000EC01F62E642F8C8116DD8D818F3F11F055
:100A200060E011DD8F850F2D10E084FF23C06E0183
:100A300087E0C80ED11CE12CF12CB8010E2C02C0AD
:100A4000759567950A94E2F76170F60181916F01DF
:100A5000FADCFFEFEF1AFF0A88E0E816F10469F705
:100A6000CE01DF91CF911F910F91FF90EF90DF901A
:100A7000CF9091CDB80184E0759567958A95E1F79F
:100A8000CE0193DF6F2DCE01DF91CF911F910F919A
:100A9000FF90EF90DF90CF9088CF41E0B1DF81E011
:100AA00090E0089540E0ACCF61E0FCDF8BE39FE194
:100AB0000197F1F708950F931F93CF9368EC70E0BF
:100AC00080E090E02BDD86EC94E0EEDF60E080E0FB
:100AD00043D381E293E054D361E080E03DD383E3EC
:100AE00093E04ED363E080E037D387E493E048D3CC
:100AF00010924D0410924C0481E08093340408E07D
:100B000010E080914C0490914D0408970CF04AC07D
:100B1000B1D3C82F809335048823A9F08A3299F085
:100B2000833289F080914C0490914D04019690930A
:100B30004D0480934C04FC01ED5BFB4FC08362E0ED
:100B40000BD38C2F1ED32091350480914C049091AF
:100B50004D04233289F4833091059CF220914104A5
:100B6000309142042817390711F010923404109381
:100B70004D0400934C04C5CF2A3209F0C2CF181699
:100B800019060CF0BECF62E0E7D28BE093E0F8D21A
:100B900080914C0490914D04019790934D04809363
:100BA0004C04AFCF40914104509142042091340451
:100BB00080E090E0841795076CF40196DC01AD5B52
:100BC000BB4FFC01E85CFB4F6C913081631791F3E4
:100BD00020E0F0CF90934D0480934C042093340494
:100BE00021116CC080913604909137040196909346
:100BF00037048093360468EC70E080E090E08EDC8F
:100C000086EC94E051DF60E080E0A6D28BE593E0D3
:100C1000B7D261E080E0A0D28DE693E0B1D261E08E
:100C200086E09AD28091360490913704B5D261E083
:100C300087E092D284E793E0A3D268EC70E080E092
:100C400090E06CDC86EC94E02FDF8091360490918C
:100C5000370403975CF186EC94E026DF61E08BE1DA
:100C6000F2DB60E080E078D28CE793E089D261E04B
:100C700080E072D28DE893E083D262E080E06CD2B3
:100C800084EA93E07DD263E080E066D285EB93E076
:100C900077D268EB7BE080E090E040DC1092370494
:100CA0001092360460E08BE1CEDB05DF04DF86ECDA
:100CB00094E0FADECF911F910F9188CCCF911F91D4
:100CC0000F9108950F931F93CF9308E010E086ECE7
:100CD00094E0EADE60E080E03FD282EC93E050D224
:100CE00061E080E039D282ED93E04AD263E080E0B7
:100CF00033D283EE93E044D281E0809334041092A7
:100D000042041092410410924D0410924C048091C0
:100D10004C0490914D0408970CF04AC0ABD2C82FF8
:100D200080933504882399F380914C0490914D046D
:100D3000CA3219F1C332D1F09C012F5F3F4F30937B
:100D40004D0420934C0480914104909142040196FB
:100D50009093420480934104F901ED5BFB4FC08303
:100D600062E0822FF9D18C2F0CD2D1CF03977CF285
:100D700010934D0400934C04CACF181619063CF684
:100D800062E0EAD18BE093E0FBD180914C0490913A
:100D90004D04019790934D0480934C04809141043D
:100DA0009091420401979093420480934104AFCF05
:100DB00068EC70E080E090E0B1DB86EC94E074DEFB
:100DC00060E080E0C9D188EF93E0DAD161E080E0B3
:100DD000C3D182ED93E0D4D163E080E0BDD183EE56
:100DE00093E0CED110924D0410924C0480914C04AB
:100DF00090914D0408970CF04AC03CD2C82F8093C4
:100E000035048823A9F08A3299F0833289F08091E1
:100E10004C0490914D04019690934D0480934C04A2
:100E2000FC01E85CFB4FC08362E096D18C2FA9D116
:100E30002091350480914C0490914D04233289F423
:100E4000833091059CF2209141043091420428178F
:100E5000390711F01092340410934D0400934C04A0
:100E6000C5CF2A3209F0C2CF181619060CF0BECF32
:100E700062E072D18BE093E083D180914C04909139
:100E80004D04019790934D0480934C04AFCF409153
:100E90004104509142042091340480E090E0841792
:100EA00095076CF40196DC01A85CBB4FFC01ED5B7F
:100EB000FB4F6C913081631791F320E0F0CF90935A
:100EC0004D0480934C042093340421111AC068EC23
:100ED00070E080E090E022DB86EC94E0E5DD60E00D
:100EE00080E03AD18CE094E04BD161E080E034D1F5
:100EF00082E294E045D168EC70E080E090E00EDBA7
:100F0000E6CECF911F910F91089560E086E19BDAC4
:100F100060E087E198DA60E088E195DA60E089E1F5
:100F200092CA96E0899FD0011124A95ABB4F90968E
:100F30007C936E935F9791E091969C93919790919B
:100F4000C304E091C404F091C504992339F03097AB
:100F500051F0811108C08091730404C0309719F0DA
:100F60005C968C9119940895009761F0FC010190B2
:100F70000020E9F73197AF01481B590BBC0186EC03
:100F800094E097C980E090E008950F931F93CF936A
:100F9000DF93C82FD62F86E0C89FF0011124E95AAD
:100FA000FB4F11A2878D90A181309105E1F01CF4D7
:100FB000892B49F03FC08230910591F10397D1F51B
:100FC00060E070E031C06623A9F161E070E08C2F31
:100FD000A8DF3DDB6093AF047093B0048093B1044D
:100FE0009093B20427C033DB0091AF041091B0049A
:100FF0002091B1043091B204AB01BC01401B510BF4
:10100000620B730B8091C1049091C204A0E0B0E028
:1010100084179507A607B70718F462E070E004C0CC
:10102000D11108C063E070E08C2FDF91CF911F9148
:101030000F9177CFDF91CF911F910F910895EF928C
:10104000FF920F931F93CF93DF93EC01423018F080
:101050008F8588608F874B8B1C8A80E48D8B6E8B8D
:1010600070E0605C7F4F6F8B61E08C811BDA8D815B
:101070008F3F11F061E016DA61E08E8113DA7E01B4
:1010800087E0E80EF11C00E010E08F8584FD03C0CE
:1010900084E090E002C088E090E00817190744F46B
:1010A00061E0F70181917F01FDD90F5F1F4FEDCF07
:1010B0008BE39DE00197F1F760E08C81C4D960E09B
:1010C0008E81C1D98D818F3F11F060E0BCD96F85D1
:1010D00064FD19C063E0CE0168DC0BE416E4C801CE
:1010E0000197F1F763E0CE0160DCC8010197F1F7E9
:1010F00063E0CE015ADC83E592E00197F1F762E00C
:10110000CE0153DC13C06062CE01CCDC8BE496E4EC
:101110000197F1F76F856062CE01C4DC83E592E050
:101120000197F1F76F856062CE01BCDC6F8560626C
:10113000CE01B8DC84E0888B6CE0CE01B3DCCE015C
:10114000B3DC82E0898B66E0CE01DF91CF911F9105
:101150000F91FF90EF90A6CC643008F063E090917F
:10116000D904691710F06FEF690FE62FF0E0EA532A
:10117000FB4F9489682F690F606886EC94E092CCED
:10118000F3CEE091C604F091C7040190F081E02D08
:10119000682F86EC94E019948F929F92AF92BF9241
:1011A000CF92DF92EF92FF920F931F93CF93DF9333
:1011B000CDB7DEB7A1970FB6F894DEBF0FBECDBF97
:1011C0006C01990FEE08FF08F7FE26C08DE2D9DF0B
:1011D0008C0122273327A9012C193D094E095F09EB
:1011E00019A2CE0181967C019AE0892E912CA12C26
:1011F000B12CCA01B901A50194019CD5605DF7012C
:1012000062937F01211531054105510591F7CF0109
:10121000ABDE800F911F1BC0A701960119A28E01A2
:101220000F5D1F4F8AE0C82ED12CE12CF12CCA0192
:10123000B901A70196017ED5605DF80162938F0127
:10124000211531054105510591F7CF018DDEA1969C
:101250000FB6F894DEBF0FBECDBFDF91CF911F91C7
:101260000F91FF90EF90DF90CF90BF90AF909F9045
:101270008F9008956F927F928F929F92AF92BF92BC
:10128000CF92DF92EF92FF920F931F93CF93DF9352
:1012900081E08093C304DBD90091B3041091B404BE
:1012A0002091B5043091B604AB01BC01401B510B39
:1012B000620B730B8091BF049091C004A0E0B0E07A
:1012C00084179507A607B70708F003C1C0E080910F
:1012D000BD04C81758F4E091B904F091BA04EC0FBA
:1012E000F11D62E08081DED8CF5FF1CF712C812CBF
:1012F000912C540183948091BE04781608F05AC052
:10130000072D10E0E091BB04F091BC04E00FF11F49
:1013100061E08081C7D8E091BB04F091BC04E00F8C
:10132000F11F60E080818FD8D501C401072C04C073
:10133000880F991FAA1FBB1F0A94D2F76C017C016A
:10134000E094F094612C8091BD046816F0F4C62DF1
:10135000D0E0E091B904F091BA04EC0FFD1F808158
:101360004AD82496CC0FDD1FC95ADB4F892B29F4AC
:10137000888199818C299D2904C0888199818E2139
:101380009F21998388836394DECFE091BB04F09121
:10139000BC04E00FF11F61E0808155D88091BB044F
:1013A0009091BC04FC01E00FF11F60E080817AD8CD
:1013B0007394A1CFE3E7F4E08FEF9FEF23813481B3
:1013C000232B21F41082928381831582369624E0A8
:1013D000EF3AF20799F710E096E0F92E8091BD04FC
:1013E000181708F051C000E0C12FD0E0CC0FDD1F6E
:1013F000C15ADB4F2091BE04021708F043C0688138
:101400007981002E02C0769567950A94E2F76170A3
:101410007727129F90011124200F311DE091B7040E
:10142000F091B804E20FF31F4081E7E5F4E080E0BB
:10143000A58DB68DA217B30711F461701AC08F5F26
:1014400036968A30A9F7672BD9F0E3E7F4E080E01D
:1014500090E0508151110FC0F89EF001F99EF00DFF
:101460001124E95AFB4F448F368F258F10A2178E17
:1014700061E08BDD05C0019636968A30910549F70B
:101480000F5FB8CF1F5FAACF80E090E0C0E0FC0103
:10149000E95AFB4F21A12111C1E006968C33910539
:1014A000B1F7D5D86093B3047093B4048093B504B6
:1014B0009093B604CC2369F080917804882349F096
:1014C0008091760490917704019719F480917304C8
:1014D00003C01092C30480E0DF91CF911F910F9160
:1014E000FF90EF90DF90CF90BF90AF909F908F9044
:1014F0007F906F900895789484B5826084BD84B5A0
:10150000816084BD85B5826085BD85B5816085BDFE
:1015100080916E00816080936E00109281008091B6
:10152000810082608093810080918100816080933E
:101530008100809180008160809380008091B10063
:1015400084608093B1008091B00081608093B0008E
:1015500080919100826080939100809191008160E0
:1015600080939100809190008160809390008091A1
:10157000A10082608093A1008091A100816080938E
:10158000A1008091A00081608093A0008091210142
:1015900082608093210180912101816080932101EB
:1015A0008091200181608093200180917A00846085
:1015B00080937A0080917A00826080937A00809193
:1015C0007A00816080937A0080917A0080688093AD
:1015D0007A001092C10044E064E186EC94E02FDDD3
:1015E00060E082E20E94520260E085E10E945202C5
:1015F00060E085E20E94520260E084E20E945202B2
:1016000060E080E20E94520261E08FE20E9452029A
:1016100061E08EE20E94520261E086E10E94520285
:1016200061E087E10E94520261E088E10E9452027B
:1016300061E089E10E94520261E086E20E9452026A
:1016400061E087E00E94520261E08BE10E94520259
:1016500061E08EE10E9452020E94E60286EE92E074
:101660009093050280930402809169008C7F8160D1
:1016700080936900E89A86EC94E016DA60E080E0F6
:101680006BDD89E392E07CDD61E080E065DD83E491
:1016900092E076DD62E080E05FDD83E592E070DD80
:1016A00063E080E059DD8BE592E06ADD64EF71E094
:1016B00080E090E00E948E0205DBFDD968EC70E0CE
:1016C00080E090E00E948E0286EC94E0EDD90E94CA
:1016D000E60263E085E040DD88E692E051DD9AE0D5
:1016E000792E0FEF13E02DE0E22E22E0F22E30E013
:1016F000C32E30E0D32E1092370410923604BADD98
:1017000080933504833209F4DDDA84E20E94FB0120
:101710005C0185E20E94FB014C0182E20E94FB0118
:10172000EC0160E080E018DD87E792E029DD809140
:101730003404882399F0A114B10481F0209771F446
:1017400061E08FE20E94230260E08EE20E942302A9
:1017500060E085E001DD8DE792E012DD80913404E8
:10176000882399F08114910481F0209771F460E04E
:101770008FE20E94230260E08EE20E94230260E07A
:1017800085E0EADC85E892E0FBDC80913404882384
:1017900099F08114910481F0209771F060E08FE25C
:1017A0000E94230261E08EE20E94230260E085E055
:1017B000D3DC8DE892E0E4DC80913404882361F08E
:1017C000A114B104A1F0209791F080E20E94FB01E6
:1017D000892B09F400C205C0A114B10441F020977F
:1017E00031F080E20E94FB01892B09F003C2809155
:1017F0003404811113C08114910481F0209771F099
:1018000060E08FE20E94230260E08EE20E942302E9
:1018100060E085E0A1DC85E892E0B2DC80913404F0
:10182000811112C0892881F0209771F460E08FE265
:101830000E94230261E08EE20E94230260E085E0C4
:101840008BDC8DE892E09CDC80913404811119C01E
:10185000AB28B9F0CD2BA9F460E08FE20E942302FF
:1018600060E08EE20E94230260E085E075DC85E99D
:1018700092E086DC64EF71E080E090E00E948E02EE
:101880001AD982E20E94FB0160E0892B09F48EC123
:101890008CE062DC8DE992E073DC84E40E94DA0182
:1018A00097FD0196EC01D595C7955E0121E0A21A3E
:1018B000B10861E080E050DC86EA92E061DC61E042
:1018C00085E04ADCC50168DC39E1A316B1044CF4BB
:1018D00061E087E041DC8CEA92E052DCC0E0D0E0DD
:1018E00021C0CE014A97059748F461E087E034DCD7
:1018F00086EB92E045DCC3ECD0E014C0CE014F97FC
:1019000061E0059740F487E027DC80EC92E038DC6A
:10191000C1EED0E007C087E01FDC8AEC92E030DC4B
:10192000CFEFD0E061E087E00E945202209711F4EF
:1019300060E004C0CF3FD10529F461E087E00E9458
:101940002302AAC0F701849190E0FC013197E231B3
:10195000F10508F09CC08827EC57FF4F8F4F0CC251
:1019600084B5806884BDC7BD97C084B5806284BDDE
:10197000C8BD92C080918000806880938000D09321
:101980008900C093880088C0809180008062809325
:101990008000D0938B00C0938A007EC0809180002D
:1019A000886080938000D0938D00C0938C0074C0B9
:1019B0008091B00080688093B000C093B3006CC089
:1019C0008091B00080628093B000C093B40064C086
:1019D00080919000806880939000D0939900C0938C
:1019E00098005AC080919000806280939000D093BC
:1019F0009B00C0939A0050C08091900088608093B3
:101A00009000D0939D00C0939C0046C08091A000A0
:101A100080688093A0008091A0008F7B8093A000BD
:101A2000D093A900C093A80037C08091A000806225
:101A30008093A000D093AB00C093AA002DC08091EA
:101A4000A00088608093A000D093AD00C093AC004C
:101A500023C080912001806880932001D0932901C8
:101A6000C093280119C080912001806280932001D9
:101A7000D0932B01C0932A010FC080912001886070
:101A800080932001D0932D01C0932C0105C0C03854
:101A9000D1050CF052CF4CCF85E40E94DA01FC0155
:101AA0007E9EC0017F9E900D1124B80130D1EB01C4
:101AB0006A30710511F4C9E0D0E062E080E04CDBEF
:101AC00084ED92E05DDB62E08CE046DBCE0164DB1E
:101AD000C230D105B4F461E086E10E94230261E0E6
:101AE00087E10E94230261E088E10E94230261E015
:101AF00089E10E94230262E08EE02EDB81EE92E01B
:101B000019C0CE0102970297B8F460E086E10E9406
:101B1000230261E087E10E94230261E088E10E94E4
:101B2000230261E089E10E94230262E08EE014DB7F
:101B300088EE92E025DB48C0CE0104970297B0F40E
:101B400060E086E10E94230260E087E10E942302B8
:101B500061E088E10E94230261E089E10E942302A2
:101B600062E08EE0F9DA8FEE92E0E4CF26972297DA
:101B7000B0F460E086E10E94230260E087E10E9409
:101B8000230260E088E10E94230261E089E10E9473
:101B9000230262E08EE0E0DA86EF92E0CBCFB5D9A7
:101BA00062E08EE0D9DA8DEF92E0C4CF8CE0D4DA37
:101BB00084E093E0E5DA61E087E00E94520260E0B1
:101BC00087E00E942302A1D9C114D10409F493CD66
:101BD0000E94000090CD60E08FE20E94230260E04E
:101BE0008EE20E94230260E085E0B6DA8DE093E0A9
:101BF000C7DAF7CD1092340461E08FE20E9423022D
:101C000060E08EE20E94230260E085E0A5DA8DE7C5
:101C100092E0B6DAECCD1092C9041092C80481E3C8
:101C200092E09093C7048093C60485E38093CA042E
:101C30008FEF8093CB0484E38093CC0483E3809381
:101C4000CD0482E38093CE0481E38093CF0480E3CC
:101C50008093D0041092D1041092D2041092D30435
:101C60001092D4041092D50441E060E186EC94E037
:101C7000E6D91092590410925D0410925C041092FF
:101C80005E0487E292E0909358048093570480E0CA
:101C900090E0FC01E95AFB4F148E10A2178E11A29E
:101CA00006968C339105A9F783E192E09093BA04EC
:101CB0008093B90480E192E09093BC048093BB04CC
:101CC00084E08093BD0483E08093BE0487E192E0CA
:101CD0009093B8048093B7048AE090E09093C00496
:101CE0008093BF0484EF91E09093C2048093C10479
:101CF0001092C5041092C4041092B3041092B4045C
:101D00001092B5041092B6041092C304089597FB84
:101D1000072E16F4009406D077FD08D035D007FCC6
:101D200005D03EF4909581959F4F089570956195EB
:101D30007F4F0895A1E21A2EAA1BBB1BFD010DC007
:101D4000AA1FBB1FEE1FFF1FA217B307E407F5076B
:101D500020F0A21BB30BE40BF50B661F771F881F47
:101D6000991F1A9469F760957095809590959B01DD
:101D7000AC01BD01CF010895EE0FFF1F881F8BBF7F
:101D80000790F691E02D1994AA1BBB1B51E107C0E7
:101D9000AA1FBB1FA617B70710F0A61BB70B881FFB
:101DA000991F5A95A9F780959095BC01CD0108958A
:0C1DB00081E090E0F89400C0F894FFCFB0
:101DBC00C602C602C602C602C602C602C602C602D7
:101DCC002928272A2B2C2D31323334353637383904
:101DDC002A302300000000E302DE02E102000000D2
:101DEC00004D055901C802C70248656C6C6F205341
:101DFC00697200526F6F6D204175746F6D617469FB
:101E0C006F6E0042792034373135004C657427737E
:101E1C0020537461727421005072657373232072A5
:101E2C0065737420505700446F6F7220004F7065BB
:101E3C006E696E67004F70656E65642000436C6F51
:101E4C0073696E67004C6F636B65642000204F6391
:101E5C0063706965640054454D5020002046616EE6
:101E6C002053746F70002046616E204C4F57200039
:101E7C002046616E204D696420002046616E20482A
:101E8C00494748004C69676874204C6576656C203E
:101E9C00002034204C4544002033204C4544002085
:101EAC0032204C4544002031204C45440020302049
:101EBC004C45440020456D707479202000436C6FB4
:101ECC007365642000666972652000736166652025
:101EDC0000456E7465722050617373776F72642E57
:101EEC002E2E003320747269616C73202C636F6E1C
:101EFC006669726D202300202020202020202020C5
:101F0C002064656C65746520202A0057726F6E67BB
:101F1C002050617373776F72642E2E2E0074726969
:101F2C00616C2000206661696C6564003320546923
:101F3C006D65732057726F6E672E2E2E0054686578
:101F4C006966206D6F646520646F6F72206C6F63BF
:101F5C006B65640043616C6C696E67206F776E65AE
:101F6C00722E2E2E0053454520796F752034373153
:101F7C0035005365742050617373776F72642E2E25
:101F8C002E00332054696C6C2038206E756D6265A0
:101F9C00727300636F6E6669726D2023202C20644F
:101FAC00656C657465202A00436F6E6669726D20DE
:101FBC0050617373776F72642E2E2E0057726F6E92
:101FCC006720636F6E6669726D6174696F6E2E2E19
:101FDC002E005265736574696E6720416761696E86
:041FEC002E2E2E0067
:020000023000CC
:10E000000D9489F10D94B2F10D94B2F10D94B2F129
:10E010000D94B2F10D94B2F10D94B2F10D94B2F1F0
:10E020000D94B2F10D94B2F10D94B2F10D94B2F1E0
:10E030000D94B2F10D94B2F10D94B2F10D94B2F1D0
:10E040000D94B2F10D94B2F10D94B2F10D94B2F1C0
:10E050000D94B2F10D94B2F10D94B2F10D94B2F1B0
:10E060000D94B2F10D94B2F10D94B2F10D94B2F1A0
:10E070000D94B2F10D94B2F10D94B2F10D94B2F190
:10E080000D94B2F10D94B2F10D94B2F10D94B2F180
:10E090000D94B2F10D94B2F10D94B2F10D94B2F170
:10E0A0000D94B2F10D94B2F10D94B2F10D94B2F160
:10E0B0000D94B2F10D94B2F10D94B2F10D94B2F150
:10E0C0000D94B2F10D94B2F10D94B2F10D94B2F140
:10E0D0000D94B2F10D94B2F10D94B2F10D94B2F130
:10E0E0000D94B2F141546D656761323536300041AF
:10E0F000726475696E6F206578706C6F72657220DE
:10E1000073746B3530305632206279204D4C530099
:10E11000426F6F746C6F616465723E004875683F52
:10E1200000436F6D70696C6564206F6E203D200048
:10E130004350552054797065202020203D20005FF9
:10E140005F4156525F415243485F5F3D2000415658
:10E1500052204C696243205665723D20004743437C
:10E160002056657273696F6E203D20004350552024
:10E1700049442020202020203D20004C6F7720663D
:10E18000757365202020203D20004869676820665F
:10E190007573652020203D200045787420667573D6
:10E1A00065202020203D20004C6F636B2066757336
:10E1B000652020203D20004D617220203720323024
:10E1C000313300312E362E3800342E332E350056A2
:10E1D00023202020414444522020206F7020636F70
:10E1E00064652020202020696E73747275637469E1
:10E1F0006F6E2061646472202020496E74657272B3
:10E20000757074006E6F20766563746F7200726A49
:10E210006D702020006A6D70200057686174207056
:10E220006F72743A00506F7274206E6F7420737541
:10E2300070706F72746564004D7573742062652030
:10E2400061206C6574746572002000577269747483
:10E25000696E672045450052656164696E672045B7
:10E26000450045452065727220636E743D00504F35
:10E27000525400303D5A65726F2061646472003FF1
:10E280003D43505520737461747300403D454550C3
:10E29000524F4D207465737400423D426C696E6B41
:10E2A000204C454400453D44756D70204545505215
:10E2B0004F4D00463D44756D7020464C415348001B
:10E2C000483D48656C70004C3D4C69737420492F83
:10E2D0004F20506F72747300513D51756974005234
:10E2E0003D44756D702052414D00563D73686F7707
:10E2F00020696E7465727275707420566563746FF0
:10E30000727300593D506F727420626C696E6B00BD
:10E310002A0011241FBECFEFD1E2DEBFCDBF01E046
:10E320000CBF12E0A0E0B2E0EEE1FDEF03E00BBFB6
:10E3300002C007900D92A030B107D9F712E0A0E01B
:10E34000B2E001C01D92AE30B107E1F70F9460F367
:10E350000D948DFE01E20EBF0FEF0DBF11241FBE05
:10E360000D9460F30D9400F020E030E040ED57E0B4
:10E3700005C0FA013197F1F72F5F3F4F2817390792
:10E38000C0F308959C01260F311DC901A0E0B0E043
:10E390002F5F3F4FABBFFC018791882361F08093D3
:10E3A000C6008091C00086FFFCCF8091C0008064D1
:10E3B0008093C000EACF08958DE08093C6008091DD
:10E3C000C00086FFFCCF8091C00080648093C000B5
:10E3D0008AE08093C6008091C00086FFFCCF8091C8
:10E3E000C00080648093C00008950F94C2F10F9420
:10E3F000DCF10895FC019081992359F09093C600B7
:10E400008091C00086FFFCCF8091C0008064809323
:10E41000C0003196992379F70895282F982F929567
:10E420009F70892F805D8A3308F0895F8093C600D2
:10E430008091C00086FFFCCF8091C00080648093F3
:10E44000C000822F8F70982F905D9A3308F0995FEB
:10E450009093C6008091C00086FFFCCF8091C000E1
:10E4600080648093C00008959C01FB01853691056E
:10E470001CF46330710594F0C90164E670E00F94F8
:10E480002EFE605D7F4F6093C6008091C00086FFC6
:10E49000FCCF8091C00080648093C0002B30310598
:10E4A00014F43297B4F0C90164E670E00F942EFEC4
:10E4B0006AE070E00F942EFE605D7F4F6093C600AF
:10E4C0008091C00086FFFCCF8091C0008064809363
:10E4D000C000C9016AE070E00F942EFEC0968093E0
:10E4E000C6008091C00086FFFCCF8091C000806490
:10E4F0008093C00008951F93182F8EE692EE60E07F
:10E500000F94C2F11093C6008091C00086FFFCCF2B
:10E510008091C00080648093C0000F94DCF11F9153
:10E5200008952F923F924F925F926F927F928F92B7
:10E530009F92AF92BF92CF92DF92EF92FF920F9392
:10E540001F93DF93CF93CDB7DEB762970FB6F894E2
:10E55000DEBF0FBECDBF382E622ECA01DB015C01CB
:10E560006D01772420E2222E2E010894411C511CBB
:10E570008BC081E0A81680E0B80681E0C80680E084
:10E58000D80628F0C601AA27BB270F940DF2BB2797
:10E59000AD2D9C2D8B2D0F940DF28A2D0F940DF225
:10E5A0002092C6008091C00086FFFCCF8091C00001
:10E5B00080648093C0009DE29093C6008091C0006B
:10E5C00086FFFCCF8091C00080648093C0002092C1
:10E5D000C6008091C00086FFFCCF8091C00080649F
:10E5E0008093C00019828601750188249924A1E0D6
:10E5F0003A1651F03A1620F0B2E03B1661F409C029
:10E600000BBFF701779007C0C7010F9477FE782EF4
:10E6100002C0F7017080872D0F940DF22092C60082
:10E620008091C00086FFFCCF8091C0008064809301
:10E63000C000872D8052F401EF70F0708F3520F408
:10E64000E40DF51D708204C0E40DF51D8EE280839B
:10E650000894E11CF11C011D111D0894811C911CE2
:10E6600090E18916910409F0C2CF80E190E0A0E02A
:10E67000B0E0A80EB91ECA1EDB1E198AC2010F9493
:10E68000FAF10F94DCF16A94662009F072CF629679
:10E690000FB6F894DEBF0FBECDBFCF91DF911F91B3
:10E6A0000F91FF90EF90DF90CF90BF90AF909F9031
:10E6B0008F907F906F905F904F903F902F90089534
:10E6C0002F923F924F925F926F927F928F929F9282
:10E6D000AF92BF92CF92DF92EF92FF920F931F9370
:10E6E000DF93CF93CDB7DEB7CD53D1400FB6F894BB
:10E6F000DEBF0FBECDBF01E20EBF0FEF0DBF94B75F
:10E70000F894A89514BE80916000886180936000A1
:10E7100010926000789493FF05C0E0910002F091A0
:10E7200001021995279A2F9A8091C00082608093E8
:10E73000C00080E18093C40088E18093C1000000A4
:10E74000EE24FF24870144E0A42EB12CCC24DD2448
:10E7500024C0C5010197F1F70894E11CF11C011DCB
:10E76000111D21E2E2162EE4F20620E0020720E06D
:10E77000120718F031E0C32ED12CC801B70127ECE5
:10E780003BE140E050E00F9441FE611571058105C9
:10E79000910519F485B1805885B98091C00087FD35
:10E7A00003C0C114D104A9F2A6014F5F5F4FC25E3E
:10E7B000DE4F59834883CE51D140C25EDE4F8881FF
:10E7C0009981CE51D140019711F00D9410FEC05D9A
:10E7D000DE4F19821882C053D14060E0C15DDE4F28
:10E7E0001882CF52D14088249924C35DDE4F19820C
:10E7F0001882CD52D140C05EDE4F188219821A8233
:10E800001B82C052D140CE5CDE4F188219821A8220
:10E810001B82C253D140EE24FF2487010BBFF701B6
:10E8200007911691C45CDE4F19830883CC53D14005
:10E830000D940BFEC25EDE4F28813981CE51D1404E
:10E840002130310509F52091C600C25EDE4F1982E4
:10E850001882CE51D14022C02F5F3F4F4F4F5F4FA4
:10E86000213082E138078AE7480780E0580780F0C6
:10E87000C45CDE4FE881F981CC53D140EF5FFF4F9C
:10E8800019F0EE27FF27099420E030E040E050E047
:10E890008091C00087FFE0CF2091C600C35DDE4FAE
:10E8A00048815981CD52D1404F5F5F4FC35DDE4FEC
:10E8B00059834883CD52D140213209F063C64A3092
:10E8C000510508F05FC60894811C911C53E0851621
:10E8D000910409F059C600E010E018C081E280936D
:10E8E000C6008091C00086FFFCCF8091C00080648C
:10E8F0008093C0002F5F3F4F2931310579F70F9486
:10E90000DCF10F5F1F4F0530110519F020E030E0FA
:10E91000E5CF10920A0210920B0210920C02109294
:10E920000D02109206021092070210920802109235
:10E930000902109202021092030210920402109235
:10E9400005028FEE90EE60E00F94F5F180E191EE1C
:10E9500060E00F94C2F18091C00087FFFCCF9091DE
:10E96000C600903608F09F759032B8F09093C600BC
:10E970008091C00086FFFCCF8091C00080648093AE
:10E98000C000A0E2A093C6008091C00086FFFCCF2B
:10E990008091C00080648093C000983409F4D7C18E
:10E9A0009934B8F4923409F459C1933458F490333B
:10E9B00019F1903308F4E3C59F33A1F1903409F0C5
:10E9C000DEC5BDC0953409F470C1963409F0D7C5D1
:10E9D00098C1923509F42BC2933538F49C3409F46C
:10E9E000F5C1913509F0CBC518C2963509F445C279
:10E9F000993509F0C4C567C483E792EE62E00F94CD
:10EA0000F5F110920602109207021092080210927D
:10EA1000090210920A0210920B0210920C0210923C
:10EA20000D0213C18FE792EE62E00F94F5F18FEEC5
:10EA300090EE60E00F94F5F181E291EE60E00F94CA
:10EA4000C2F187EB91EE60E00F94F5F180E391EE77
:10EA500060E00F94C2F184EE90EE60E00F94F5F167
:10EA60008FE391EE60E00F94C2F186E090E061E008
:10EA700070E00F9434F20F94DCF18DE591EE60E0DC
:10EA80000F94C2F189EC91EE60E00F94F5F18EE401
:10EA900091EE60E00F94C2F183EC91EE60E00F9490
:10EAA000F5F18CE691EE60E00F94C2F18EE10F94E7
:10EAB0000DF288E90F940DF281E00F940DF20F949E
:10EAC000DCF18BE791EE60E00F94C2F119E0E0E039
:10EAD000F0E010935700E4918E2F0F940DF20F94F5
:10EAE000DCF18AE891EE60E00F94C2F1E3E0F0E03F
:10EAF00010935700E4918E2F0F940DF20F94DCF1D8
:10EB000089E991EE60E00F94C2F1E2E0F0E0109349
:10EB10005700E4918E2F0F940DF20F94DCF188EAE8
:10EB200091EE60E00F94C2F1E1E0F0E01093570045
:10EB30001491812F0F940DF20F94DCF107CF8BE825
:10EB400092EE62E00F94F5F18BE492EE60E00F94A8
:10EB5000F5F10F94DCF100E010E019C0C8016F2D51
:10EB60000F947FFEFF2031F489E492EE60E00F9471
:10EB7000C2F10BC0F092C6008091C00086FFFCCFAE
:10EB80008091C00080648093C0000F5F1F4FC80158
:10EB900081519F41A0E0B0E0ABBFFC01F790BAE229
:10EBA000FB1621F0E2E000301E07C1F60F94DCF105
:10EBB0000F94DCF187E592EE60E00F94F5F10F948D
:10EBC000DCF1CC24DD2400E010E01EC0C8010F946D
:10EBD00077FEF82E882331F489E492EE60E00F94FA
:10EBE000C2F10BC08093C6008091C00086FFFCCFAD
:10EBF0008091C00080648093C000FE1419F00894D6
:10EC0000C11CD11C0F5F1F4FC80181519F41A0E063
:10EC1000B0E0ABBFFC01E790FAE2EF1621F022E092
:10EC20000030120799F60F94DCF10F94DCF182E6C4
:10EC300092EE60E00F94C2F1C60161E070E00F94C3
:10EC400034F20F94DCF10F94DCF110920202109276
:10EC50000302109204021092050278CE89E992EE26
:10EC600062E00F94F5F1279A2F9A16C02F9880E052
:10EC700090E0E0EDF7E03197F1F7019684369105E9
:10EC8000C1F72F9A80E090E0E0EDF7E03197F1F7DF
:10EC9000019684369105C1F78091C00087FFE6CFC9
:10ECA0008091C00087FFFCCF64C485EA92EE62E0E9
:10ECB0000F94F5F140910202509103026091040219
:10ECC0007091050281E020E10F9491F2809102029F
:10ECD00090910302A0910402B091050280509F4FD1
:10ECE000AF4FBF4F8093020290930302A0930402A0
:10ECF000B093050280509041A040B04008F426CE69
:10ED0000A4CF83EB92EE62E00F94F5F140910602FE
:10ED100050910702609108027091090280E020E1A1
:10ED20000F9491F28091060290910702A09108023F
:10ED3000B091090280509F4FAF4FBF4F80930602A2
:10ED400090930702A0930802B0930902FFCD80ECD4
:10ED500092EE62E00F94F5F183E792EE60E00F949B
:10ED6000F5F18FE792EE60E00F94F5F18BE892EE0B
:10ED700060E00F94F5F189E992EE60E00F94F5F10F
:10ED800085EA92EE60E00F94F5F183EB92EE60E09D
:10ED90000F94F5F180EC92EE60E00F94F5F187ECC2
:10EDA00092EE60E00F94F5F188ED92EE60E00F9442
:10EDB000F5F18FED92EE60E00F94F5F18AEE92EEB0
:10EDC00060E00F94F5F183E093EEBDCD87EC92EE19
:10EDD00062E00F94F5F181E40F947BF282E40F94EA
:10EDE0007BF283E40F947BF284E40F947BF285E45E
:10EDF0000F947BF286E40F947BF287E40F947BF20E
:10EE000088E40F947BF28AE40F947BF28BE40F94F6
:10EE10007BF28CE40F947BF299CD88ED92EE62E068
:10EE20000F94F5F1772473948824992409C48FED05
:10EE300092EE62E00F94F5F140910A0250910B02BC
:10EE400060910C0270910D0282E020E10F9491F22A
:10EE500080910A0290910B02A0910C02B0910D02D8
:10EE600080509F4FAF4FBF4F80930A0290930B0289
:10EE7000A0930C02B0930D0269CD8AEE92EE62E08F
:10EE80000F94F5F184EE90EE60E00F94F5F18FECC5
:10EE900091EE60E00F94F5F1662477244301CC5D98
:10EEA000DE4F19821882C452D140D401C301B695F5
:10EEB000A79597958795CA5DDE4F88839983AA8326
:10EEC000BB83C652D140CC5DDE4FA881B981C4520C
:10EED000D1401196CC5DDE4FB983A883C452D14096
:10EEE000CD0162E070E00F9434F2B0E2B093C6005E
:10EEF0008091C00086FFFCCF8091C0008064809329
:10EF0000C000EDE2E093C6008091C00086FFFCCF18
:10EF10008091C00080648093C000F0E2F093C6004E
:10EF20008091C00086FFFCCF8091C00080648093F8
:10EF3000C000CA5DDE4FE880F9800A811B81C6529D
:10EF4000D140BB27A12F902F8F2D0F940DF2CA5DBA
:10EF5000DE4F8881C652D1400F940DF2B0E2FB2EF5
:10EF6000F092C6008091C00086FFFCCF8091C00067
:10EF700080648093C0000DE30093C6008091C000C0
:10EF800086FFFCCF8091C00080648093C00010E2B7
:10EF90001093C6008091C00086FFFCCF8091C00016
:10EFA00080648093C0008BBEF3012791C65DDE4F65
:10EFB0002883CA52D140A22EBB24CC24DD2408943D
:10EFC000611C711C811C911C8BBEF3018791282E42
:10EFD0003324442455240894611C711C811C911C09
:10EFE0008BBEF3013791C55DDE4F3883CB52D140E4
:10EFF0000894611C711C811C911C8BBEF30147910C
:10F00000C45DDE4F4883CC52D140ADEFEA2EAFEF66
:10F01000FA2EAFEF0A2FAFEF1A2F6E0C7F1C801E57
:10F02000911E142D032DF22CEE24EA0CFB1C0C1D5A
:10F030001D1D0F940DF220E22093C6008091C000A8
:10F0400086FFFCCF8091C00080648093C000C65DC5
:10F05000DE4F8881CA52D1400F940DF230E23093D6
:10F06000C6008091C00086FFFCCF8091C000806404
:10F070008093C000C45DDE4F8881CC52D1400F9494
:10F080000DF240E24093C6008091C00086FFFCCFA5
:10F090008091C00080648093C000C55DDE4F888190
:10F0A000CB52D1400F940DF250E25093C6008091A4
:10F0B000C00086FFFCCF8091C00080648093C000B8
:10F0C0008FEFE8168FEFF80680E0080780E018075A
:10F0D00031F484E092EE60E00F94C2F1DFC0D80119
:10F0E000C7018070907CA070B0708050904CA040A0
:10F0F000B040D1F52FEF3FE340E050E0E222F322B1
:10F1000004231523CA5DDE4FA880B980CA80DB8046
:10F11000C652D140AE0CBF1CC01ED11EAA0CBB1CD7
:10F12000CC1CDD1C8EE092EE60E00F94C2F1BB2798
:10F13000A12F902F8F2D0F940DF28E2D0F940DF285
:10F1400030E23093C6008091C00086FFFCCF8091F2
:10F15000C00080648093C0004EE34093C60080915D
:10F16000C00086FFFCCF87C08EE09EEFA0E0B0E03D
:10F17000E822F9220A231B239CE0E91694E9F90608
:10F1800090E0090790E0190709F088C0C45DDE4FE0
:10F19000A881CC52D140EA2EFF2400E010E0102FCD
:10F1A0000F2DFE2CEE24C55DDE4FB881CB52D14031
:10F1B000EB0EF11C011D111DD601C501817090706F
:10F1C000A070B070DC0199278827E80EF91E0A1F8D
:10F1D0001B1F20EF30E040E050E0A222B322C42207
:10F1E000D52241E1AA0CBB1CCC1CDD1C4A95D1F7F1
:10F1F000EA0CFB1C0C1D1D1D81E090E0A0E0B0E0BE
:10F20000282239224A225B2235E1220C331C441C7D
:10F21000551C3A95D1F7E20CF31C041D151D57013E
:10F220006801AA0CBB1CCC1CDD1C85E192EE60E0E1
:10F230000F94C2F1C801AA27BB270F940DF2BB2778
:10F24000A12F902F8F2D0F940DF28E2D0F940DF274
:10F2500090E29093C6008091C00086FFFCCF809121
:10F26000C00080648093C000AEE3A093C60080918C
:10F27000C00086FFFCCF8091C00080648093C000F6
:10F28000C601AA27BB270F940DF2BB27AD2D9C2DDD
:10F290008B2D0F940DF28A2D0F940DF20F94DCF14B
:10F2A000CC5DDE4FE881F981C452D140F99709F471
:10F2B0004DCBF4E0EF2EF12C012D112D6E0C7F1CA7
:10F2C000801E911EF2CD83E093EE62E00F94F5F183
:10F2D0008AE192EE60E00F94C2F18091C00087FF56
:10F2E000FCCF1091C6001F751093C6008091C0001E
:10F2F00086FFFCCF8091C00080648093C0000F9493
:10F30000DCF1812F81548A3108F036C1163409F4BA
:10F3100095C0173490F4133409F44EC0143430F40B
:10F320001134F1F0123409F01DC130C0143409F465
:10F3300059C0153409F016C16BC01A3409F4C4C0A1
:10F340001B3438F4173409F48FC0183409F00AC19B
:10F35000A1C01B3409F4D2C01C3409F003C1E8C0B9
:10F360008FEF81B90DC082B1809582B980E090E0C5
:10F37000E0EDF7E03197F1F70196883C9105C1F790
:10F380008091C00087FFEFCF12B8EFC08FEF84B934
:10F390000DC085B1809585B980E090E0E0EDF7E0A3
:10F3A0003197F1F70196883C9105C1F78091C00033
:10F3B00087FFEFCF15B8D9C08FEF87B90DC088B1DF
:10F3C000809588B980E090E0E0EDF7E03197F1F7C3
:10F3D0000196883C9105C1F78091C00087FFEFCF6F
:10F3E00018B8C3C08FEF8AB90DC08BB180958BB9A7
:10F3F00080E090E0E0EDF7E03197F1F70196883C8E
:10F400009105C1F78091C00087FFEFCF1BB8ADC059
:10F410008FEF8DB90DC08EB180958EB980E090E0F0
:10F42000E0EDF7E03197F1F70196883C9105C1F7DF
:10F430008091C00087FFEFCF1EB897C08FEF80BBD1
:10F440000DC081B3809581BB80E090E0E0EDF7E0F6
:10F450003197F1F70196883C9105C1F78091C00082
:10F4600087FFEFCF11BA81C08FEF83BB0DC084B38C
:10F47000809584BB80E090E0E0EDF7E03197F1F714
:10F480000196883C9105C1F78091C00087FFEFCFBE
:10F4900014BA6BC08FEF809301010FC080910201FD
:10F4A00080958093020180E090E0E0EDF7E03197F5
:10F4B000F1F70196883C9105C1F78091C00087FF64
:10F4C000EDCF1092020151C08FEF809304010FC065
:10F4D0008091050180958093050180E090E0E0ED4A
:10F4E000F7E03197F1F70196883C9105C1F78091DB
:10F4F000C00087FFEDCF1092050137C08FEF8093DA
:10F5000007010FC08091080180958093080180E079
:10F5100090E0E0EDF7E03197F1F70196883C910536
:10F52000C1F78091C00087FFEDCF109208011DC088
:10F530008FEF80930A010FC080910B01809580931B
:10F540000B0180E090E0E0EDF7E03197F1F70196F4
:10F55000883C9105C1F78091C00087FFEDCF1092E4
:10F560000B0103C085E292EEEEC98091C00087FFD7
:10F57000FCCF8091C600EAC988E392EEE4C98CE131
:10F5800091EEE1C988249924933011F1943028F444
:10F59000913089F09230B8F408C0953061F195301F
:10F5A000F0F0963009F048C043C02B3109F042C951
:10F5B00091E06BE13FC96227C15DDE4F2883CF52E6
:10F5C000D14092E037C9B22FA0E0622793E032C960
:10F5D000822F90E0A82BB92B622794E02BC92E3004
:10F5E00009F039C3622795E0C05DDE4F19821882A9
:10F5F000C053D1401FC9E1E0F0E0EC0FFD1FC05D3A
:10F60000DE4F08811981C053D140E00FF11F2083E4
:10F610000F5F1F4FC05DDE4F19830883C053D14079
:10F6200062270A171B0709F005C9D80196E002C92D
:10F63000261709F010C303C0973009F0FBC87724E0
:10F640009981933109F412C19431C8F4963009F4C8
:10F65000D8C0973050F4923009F406C1933009F4C1
:10F660006DC0913009F059C253C0913109F477C08F
:10F67000923108F0BBC0903109F04FC2F5C098310B
:10F6800009F487C0993150F4953109F4EFC09531F0
:10F6900008F4C6C1963109F040C2C2C19A3109F4DA
:10F6A0006CC09A3108F491C09B3109F45BC09D3164
:10F6B00009F033C29D81903359F48F81882311F46E
:10F6C0009EE11CC0813011F091E018C098E916C08D
:10F6D000892F807591F0903539F4E0E0F0E089E011
:10F6E0008093570094910AC0983539F4E3E0F0E034
:10F6F00089E080935700949101C090E01A821B82A8
:10F700008D818C831D829E831F8227E030E009C299
:10F710001A8288E08B8381E48C8386E58D8382E581
:10F720008E8389E48F8383E5888780E589878FE5E9
:10F730008A8782E38B872BE030E0F3C18A818139AD
:10F7400041F0823941F0803911F48FE005C080E04A
:10F7500003C082E001C08AE01A828B8344C0772410
:10F76000739482C08D81882311F48EE12CC0813086
:10F7700011F081E028C088E926C01A82E1E0F0E0BB
:10F7800089E08093570084918B831C8224E030E0D1
:10F79000C8C18B81803589F48C81883039F4E2E0EE
:10F7A000F0E089E08093570084910DC0E0E0F0E044
:10F7B00089E080935700849106C0E3E0F0E089E09F
:10F7C0008093570084911A82DFCF8D81836C99E0FA
:10F7D000E1E0F0E0082E90935700E89507B600FCB2
:10F7E000FDCF1A821B8223E030E09BC180EC8A832C
:10F7F000CE5CDE4F188219821A821B82C253D1401E
:10F800008EC18A8190E0A0E0B0E0582F44273327D2
:10F8100022278B8190E0A0E0B0E0DC0199278827C7
:10F82000282B392B4A2B5B2B8D8190E0A0E0B0E098
:10F83000282B392B4A2B5B2B8C8190E0A0E0B0E089
:10F84000BA2FA92F982F8827282B392B4A2B5B2BCF
:10F85000220F331F441F551FC05EDE4F288339839C
:10F860004A835B83C052D1401A8259C13A81C95C34
:10F87000DE4F3883C753D140CA5CDE4F1882C6536F
:10F88000D1408B81C82EDD24CA5CDE4F488159816E
:10F89000C653D140C42AD52A933109F082C0CE5C28
:10F8A000DE4F88819981AA81BB81C253D1408050AB
:10F8B000904CA340B04030F583E0CE5CDE4FE88052
:10F8C000F9800A811B81C253D140F70100935B008C
:10F8D00080935700E89507B600FCFDCFCE5CDE4F65
:10F8E000088119812A813B81C253D14000501F4FAA
:10F8F0002F4F3F4FCE5CDE4F088319832A833B8313
:10F90000C253D140C05EDE4F488159816A817B81FC
:10F91000C052D140DE011B9631E08C9111962C91A2
:10F9200011971296C75CDE4F2883C953D140C85C3B
:10F93000DE4F1882C853D14090E0C85CDE4FE881AA
:10F94000F981C853D1408E2B9F2B0C01FA01609393
:10F950005B0030935700E89511244E5F5F4F6F4F67
:10F960007F4F0EEFE02E0FEFF02ECE0CDF1CC114F8
:10F97000D10499F685E0C05EDE4F088119812A81A5
:10F980003B81C052D140F80120935B008093570027
:10F99000E89507B600FCFDCF81E180935700E8951C
:10F9A00035C0C05EDE4F88819981AA81BB81C0527B
:10F9B000D140B695A795979587957C018601ABE0D8
:10F9C000AA2EB12CAC0EBD1E0BC0D5016D915D01F0
:10F9D000C7010F947FFE0894E11CF11C01501040F8
:10F9E0000115110591F7A60160E070E0440F551F65
:10F9F000661F771FC05EDE4FE880F9800A811B8199
:10FA0000C052D1404E0D5F1D601F711F1A82C05E33
:10FA1000DE4F488359836A837B83C052D1407FC0C5
:10FA2000FA80C55CDE4FF882CB53D140C65CDE4F16
:10FA30001882CA53D1408B81C82EDD24C65CDE4FAC
:10FA400008811981CA53D140C02AD12A1A828981DA
:10FA5000BE016D5F7F4F843121F59601C05EDE4FA0
:10FA6000E880F9800A811B81C052D1400BBFF701A9
:10FA700087919691DB018C9311969C936E5F7F4FDB
:10FA8000D801C7010296A11DB11DC05EDE4F88835B
:10FA90009983AA83BB83C052D14022503040F1F6F3
:10FAA00036C0C05EDE4F288139814A815B81C052F9
:10FAB000D1400894C108D108760100E010E0089414
:10FAC000C11CD11C0894E11CF11C011D111DE20E8A
:10FAD000F31E041F151F21BDBB27A52F942F832FB5
:10FAE00082BD2F5F3F4F4F4F5F4FF89A80B5DB01CC
:10FAF0008D93BD012E153F054007510761F7C05E8C
:10FB0000DE4F288339834A835B83C052D1409601FC
:10FB10002D5F3F4FFB01108204C080EC8A8322E0FE
:10FB200030E08BE18093C6008091C00086FFFCCF5F
:10FB30008091C00080648093C000C15DDE4FF88179
:10FB4000CF52D140F093C6008091C00086FFFCCF19
:10FB50008091C00080648093C000432F3093C60022
:10FB60008091C00086FFFCCF8091C00080648093AC
:10FB7000C000922F2093C6008091C00086FFFCCF6A
:10FB80008091C00080648093C0008EE08093C600A6
:10FB90008091C00086FFFCCF8091C000806480937C
:10FBA000C00065E1C15DDE4FE880CF52D1406E25D7
:10FBB00069276427FE01319610C090819093C6009A
:10FBC0008091C00086FFFCCF31968091C000806498
:10FBD0008093C0006927215030402115310569F715
:10FBE0006093C6008091C00086FFFCCF8091C0006A
:10FBF00080648093C00085B1805885B9772081F4F6
:10FC0000C15DDE4F0881CF52D1400F5FC15DDE4F35
:10FC10000883CF52D14090E0A0E0B0E00D941AF4F8
:10FC200027982F9880E090E020ED37E0F901319798
:10FC3000F1F7019684369105C9F700008091C00064
:10FC40008D7F8093C00081E180935700E895EE2777
:10FC5000FF270994FFCF90E00D941AF497FB092E2B
:10FC600007260AD077FD04D02ED006D000201AF443
:10FC7000709561957F4F0895F6F7909581959F4F08
:10FC80000895A1E21A2EAA1BBB1BFD010DC0AA1FDD
:10FC9000BB1FEE1FFF1FA217B307E407F50720F0F5
:10FCA000A21BB30BE40BF50B661F771F881F991F70
:10FCB0001A9469F760957095809590959B01AC01B9
:10FCC000BD01CF010895AA1BBB1B51E107C0AA1FAC
:10FCD000BB1FA617B70710F0A61BB70B881F991FED
:10FCE0005A95A9F780959095BC01CD010895F99991
:10FCF000FECF92BD81BDF89A992780B50895262F31
:10FD0000F999FECF1FBA92BD81BD20BD0FB6F89400
:0EFD1000FA9AF99A0FBE01960895F894FFCF63
:040000033000E000E9
:00000001FF
