:100000000C9462000C948A000C948A000C948A0070
:100010000C948A000C948A000C948A000C948A0038
:100020000C948A000C948A000C948A000C948A0028
:100030000C948A000C948A000C948A000C948A0018
:100040000C94E4020C948A000C948A000C948A00AC
:100050000C948A000C948A000C948A000C948A00F8
:100060000C948A000C948A000000000024002700F1
:100070002A0000000000250028002B0000000000DE
:1000800023002600290004040404040404040202DA
:100090000202020203030303030301020408102007
:1000A0004080010204081020010204081020000012
:1000B0000008000201000003040700000000000027
:1000C0000000010511241FBECFEFD8E0DEBFCDBF79
:1000D00011E0A0E0B1E0EAE5FAE002C005900D927F
:1000E000A037B107D9F721E0A0E7B1E001C01D9228
:1000F000A139B207E1F710E0C2E6D0E004C02197D1
:10010000FE010E942005C136D107C9F70E942E03C7
:100110000C942B050C940000CF92DF92EF92FF928B
:100120000F931F93CF93DF936C017A018B01C0E093
:10013000D0E0CE15DF0589F0D8016D918D01D60193
:10014000ED91FC910190F081E02DC6010995892B7C
:1001500011F47E0102C02196ECCFC701DF91CF914F
:100160001F910F91FF90EF90DF90CF900895833013
:1001700081F028F4813099F08230A1F00895873021
:10018000A9F08830B9F08430D1F4809180008F7D5F
:1001900003C0809180008F7780938000089584B59C
:1001A0008F7702C084B58F7D84BD08958091B000A3
:1001B0008F7703C08091B0008F7D8093B000089549
:1001C000CF93DF93282F30E0F901E255FF4F849160
:1001D000F901E656FF4FD491F901EA57FF4FC49158
:1001E000CC2391F081110E94B700EC2FF0E0EE0FCC
:1001F000FF1FE458FF4FA591B491EC91ED2381E0EE
:1002000090E021F480E002C080E090E0DF91CF91A7
:1002100008951F93CF93DF93282F30E0F901E25523
:10022000FF4F8491F901E656FF4FD491F901EA5747
:10023000FF4FC491CC23C9F0162F81110E94B70043
:10024000EC2FF0E0EE0FFF1FEE58FF4FA591B49199
:100250008FB7F894111105C09C91ED2FE095E9231B
:1002600002C0EC91ED2BEC938FBFDF91CF911F91EA
:100270000895CF93DF9390E0FC01E656FF4F249161
:10028000FC01EA57FF4F8491882361F190E0880FC9
:10029000991FFC01E859FF4FC591D491FC01EE581C
:1002A000FF4FA591B491611109C09FB7F89488815F
:1002B000209582238883EC912E230BC0623061F459
:1002C0009FB7F8943881822F809583238883EC919F
:1002D0002E2B2C939FBF06C08FB7F894E8812E2B4E
:1002E00028838FBFDF91CF910895CF93DF93EC01E7
:1002F00060E08E810E94090161E08E810E94090107
:1003000060E08E810E9409018BE891E00197F1F78E
:10031000DF91CF910895CF92DF92EF92FF920F93EA
:100320001F93CF93DF937C016C0187E0C80ED11C33
:10033000C0E0D0E0062F10E0B8010C2E02C0759589
:1003400067950A94E2F76170F60181916F010E944E
:1003500009012196C430D10579F7C701DF91CF910A
:100360001F910F91FF90EF90DF90CF900C9475014B
:10037000CF92DF92EF92FF920F931F93CF93DF9371
:10038000EC01F62E642F8C810E9409018D818F3F34
:1003900019F060E00E9409018F850F2D10E084FFA5
:1003A00025C06E0187E0C80ED11CE12CF12CB801EC
:1003B0000E2C02C0759567950A94E2F76170F601FC
:1003C00081916F010E940901FFEFEF1AFF0A88E097
:1003D000E816F10461F7CE01DF91CF911F910F91E3
:1003E000FF90EF90DF90CF900C947501B80184E0FE
:1003F000759567958A95E1F7CE010E948B016F2D67
:10040000CE01DF91CF911F910F91FF90EF90DF9080
:10041000CF900C948B0141E00E94B80181E090E004
:10042000089540E00C94B801EF92FF920F931F9350
:10043000CF93DF93EC01623018F08F8588608F874F
:100440006B8B1C8A80E48D8B80E18E8B80E58F8B9B
:1004500061E08C810E9439018D818F3F19F061E04C
:100460000E94390161E08E810E9439017E0187E09E
:10047000E80EF11C00E010E08F8584FD03C084E0ED
:1004800090E002C088E090E0081719074CF461E0A2
:10049000F70181917F010E9439010F5F1F4FECCF5F
:1004A0008BE39DE00197F1F760E08C810E940901E8
:1004B00060E08E810E9409018D818F3F19F060E01C
:1004C0000E9409016F8564FD1DC063E0CE010E949A
:1004D0008B010BE416E4C8010197F1F763E0CE014C
:1004E0000E948B01C8010197F1F763E0CE010E94E1
:1004F0008B0183E592E00197F1F762E0CE010E9463
:100500008B0116C06062CE010E9411028BE496E45A
:100510000197F1F76F856062CE010E94110283E5B9
:1005200092E00197F1F76F856062CE010E9411029F
:100530006F856062CE010E94110284E0888B6CE0BE
:10054000CE010E94110261E0CE010E9411028BE3F4
:100550009FE10197F1F782E0898B66E0CE01DF91A0
:10056000CF911F910F91FF90EF900C941102643086
:1005700008F063E090918C01691710F06FEF690F3C
:10058000E62FF0E0E758FE4F9489682F690F606806
:1005900089E791E00C941102089580E090E00895BD
:1005A000009769F0FC0101900020E9F73197AF0155
:1005B000481B590BBC0189E791E00C948C0080E04A
:1005C00090E008950E9426051F920F920FB60F9299
:1005D00011242F933F938F939F93AF93BF93809159
:1005E000750190917601A0917701B09178013091D9
:1005F000740123E0230F2D3720F40196A11DB11DB6
:1006000005C026E8230F0296A11DB11D2093740199
:100610008093750190937601A0937701B093780150
:100620008091700190917101A0917201B09173015C
:100630000196A11DB11D8093700190937101A0934B
:100640007201B0937301BF91AF919F918F913F91D0
:100650002F910F900FBE0F901F901895789484B52E
:10066000826084BD84B5816084BD85B5826085BDAE
:1006700085B5816085BD80916E00816080936E003C
:10068000109281008091810082608093810080912E
:1006900081008160809381008091800081608093DF
:1006A00080008091B10084608093B1008091B0009F
:1006B00081608093B00080917A00846080937A009A
:1006C00080917A00826080937A0080917A008160C4
:1006D00080937A0080917A00806880937A001092EB
:1006E000C10062E089E791E00E94140260E080E0CE
:1006F0000E94B70282E191E00E94D00261E080E0B6
:100700000E94B7028AE191E00E94D00260E080E09E
:100710000E94390160E081E00E94390160E082E0DE
:100720000E94390160E083E00E94390160E084E0CA
:100730000E94390160E085E00E94390100E010E08C
:1007400085E5E82EF12CCC24CA94D12CC1E0D0E070
:1007500084E00E94E000892BC9F08091040190910F
:100760000501892B99F080910201909103018B5A28
:100770009F4F8F3F91050CF469C0D0920301C09246
:10078000020110920501109204010CC085E00E9444
:10079000E000892B39F08091000190910101892BB3
:1007A00009F059C084E00E94E000892B21F4D09325
:1007B0000501C093040185E00E94E000892B21F42B
:1007C000D0930101C0930001809102019091030137
:1007D00060E08535910531F487E00E94B70280E240
:1007E00091E017C08A3A910531F487E00E94B70280
:1007F00085E291E00EC08F3F910531F487E00E94C1
:10080000B7028AE291E005C087E00E94B7028FE25A
:1008100091E00E94D00280E00E94E000892B91F5D7
:1008200083E00E94E000892B69F581E00E94E000EE
:10083000892B41F582E00E94E000892B19F561E0E7
:1008400086E00E94B70284E391E0B7C09093030171
:100850008093020196CF809102019091030185550A
:100860009109863591054CF4F0920301E092020162
:10087000109201011092000195CF90930301809393
:100880000201F6CF80E00E94E000892B61F083E056
:100890000E94E000892B39F061E086E00E94B702F7
:1008A0008AE391E08AC081E00E94E000892B61F038
:1008B00082E00E94E000892B39F061E086E00E942E
:1008C000B70280E491E079C080E00E94E000892BCB
:1008D00061F082E00E94E000892B39F061E086E05F
:1008E0000E94B70286E491E068C081E00E94E000C7
:1008F000892B29F083E00E94E000892BB1F480E08D
:100900000E94E000892BC1F083E00E94E000892B67
:1009100099F482E00E94E000892B71F461E086E0A6
:100920000E94B70282E591E048C061E086E00E9443
:10093000B7028CE491E041C081E00E94E000892B85
:1009400089F083E00E94E000892B61F482E00E943C
:10095000E000892B39F461E086E00E94B70288E567
:1009600091E02BC082E00E94E000892B89F080E0BA
:100970000E94E000892B61F481E00E94E000892B55
:1009800039F461E086E00E94B7028EE591E015C07F
:1009900083E00E94E000892BC9F080E00E94E00023
:1009A000892BA1F481E00E94E000892B79F461E0B9
:1009B00086E00E94B70284E691E00E94D002011511
:1009C000110509F4C5CE0E940000C2CE82E00E944B
:1009D000E000892B29F083E00E94E000892B51F48C
:1009E00080E00E94E000892B51F381E00E94E0004A
:1009F000892B29F361E086E00E94B7028AE691E044
:100A0000DCCFE9E7F1E0138212828AE091E0918382
:100A100080838DE084838FEF85838CE086838BE0F9
:100A200087838AE0808789E0818788E082871386D0
:100A3000148615861686178661E0CF010C94140281
:100A4000EE0FFF1F0590F491E02D099481E090E0F6
:0A0A5000F8940C942B05F894FFCFE6
:100A5A00010055000100000000000B028C00CD02CD
:100A6A00CC025370656564206D004469722E2000C3
:100A7A00696E202000696420200061782020006FC0
:100A8A007574200073746F702000462E4C2020006D
:100A9A00422E52202000462E52202000422E4C2068
:100AAA00200066726F6E74006261636B2000726967
:100ABA00676874006C65667420006572726F7200F4
:00000001FF
