:100000000C9461000C947E000C947E000C947E0095
:100010000C947E000C947E000C947E000C947E0068
:100020000C947E000C947E000C947E000C947E0058
:100030000C947E000C947E000C947E000C947E0048
:100040000C949D010C947E000C947E000C947E0018
:100050000C947E000C947E000C947E000C947E0028
:100060000C947E000C947E00000000002400270009
:100070002A0000000000250028002B0000000000DE
:1000800023002600290004040404040404040202DA
:100090000202020203030303030301020408102007
:1000A0004080010204081020010204081020000012
:1000B0000008000201000003040700000000000027
:1000C000000011241FBECFEFD8E0DEBFCDBF11E08E
:1000D000A0E0B1E0E6EAF8E002C005900D92AA3097
:1000E000B107D9F721E0AAE0B1E001C01D92A73124
:1000F000B207E1F70E94E7010C9451040C94000050
:10010000833081F028F4813099F08230A1F0089595
:100110008730A9F08830B9F08430D1F48091800024
:100120008F7D03C0809180008F7780938000089539
:1001300084B58F7702C084B58F7D84BD089580918A
:10014000B0008F7703C08091B0008F7D8093B000A6
:100150000895CF93DF93282F30E0F901E255FF4F48
:100160008491F901E656FF4FD491F901EA57FF4F08
:10017000C491CC2391F081110E948000EC2FF0E01B
:10018000EE0FFF1FE458FF4FA591B491EC91ED23C2
:1001900081E090E021F480E002C080E090E0DF9117
:1001A000CF9108951F93CF93DF93282F30E0F9016B
:1001B000E255FF4F8491F901E656FF4FD491F901C2
:1001C000EA57FF4FC491CC23C9F0162F81110E942A
:1001D0008000EC2FF0E0EE0FFF1FEE58FF4FA591CF
:1001E000B4918FB7F894111105C09C91ED2FE09553
:1001F000E92302C0EC91ED2BEC938FBFDF91CF91FF
:100200001F910895CF93DF9390E0FC01E656FF4FD6
:100210002491FC01EA57FF4F8491882361F190E01B
:10022000880F991FFC01E859FF4FC591D491FC013B
:10023000EE58FF4FA591B491611109C09FB7F89492
:100240008881209582238883EC912E230BC0623015
:1002500061F49FB7F8943881822F80958323888337
:10026000EC912E2B2C939FBF06C08FB7F894E8819A
:100270002E2B28838FBFDF91CF9108951F93CF93AB
:10028000DF93182FEB0161E00E940201209711F427
:1002900060E004C0CF3FD10539F461E0812FDF91E8
:1002A000CF911F910C94D200E12FF0E0E255FF4F67
:1002B000E491E330F9F048F4E130B9F0E230A1F52F
:1002C00084B5806284BDC8BD34C0E730E9F0E83051
:1002D00019F1E43049F580918000806280938000BC
:1002E000D0938B00C0938A0024C084B5806884BDFD
:1002F000C7BD1FC080918000806880938000D0932C
:100300008900C093880015C08091B00080688093F8
:10031000B000C093B3000DC08091B00080628093A4
:10032000B000C093B40005C0C038D1050CF0B5CF03
:10033000AFCFDF91CF911F9108951F920F920FB60B
:100340000F9211242F933F938F939F93AF93BF935B
:100350008091130190911401A0911501B0911601A3
:100360003091120123E0230F2D3720F40196A11DB7
:10037000B11D05C026E8230F0296A11DB11D2093D3
:1003800012018093130190931401A0931501B0936F
:10039000160180910E0190910F01A0911001B09172
:1003A00011010196A11DB11D80930E0190930F01C3
:1003B000A0931001B0931101BF91AF919F918F91C4
:1003C0003F912F910F900FBE0F901F90189578942A
:1003D00084B5826084BD84B5816084BD85B582604A
:1003E00085BD85B5816085BD80916E0081608093FB
:1003F0006E00109281008091810082608093810064
:100400008091810081608093810080918000816073
:10041000809380008091B10084608093B1008091CE
:10042000B00081608093B00080917A0084608093F6
:100430007A0080917A00826080937A0080917A00BD
:10044000816080937A0080917A00806880937A003E
:100450001092C10060E080E00E94020160E081E053
:100460000E94020160E082E00E94020160E083E0FD
:100470000E94020160E084E00E94020160E085E0E9
:100480000E94020161E08DE00E94020161E08CE0C7
:100490000E94020161E08BE00E94020161E08AE0BB
:1004A0000E94020161E087E00E94020161E086E0B3
:1004B0000E94020100E010E065E5E62EF12CCC245C
:1004C000CA94D12CC1E0D0E084E00E94A900892B1D
:1004D00029F18091080190910901892BF9F080910F
:1004E0000601909107018B5A9F4F8F3F91050CF4A5
:1004F0006EC0D0920701C0920601809106019091D2
:100500000701909305018093040190930301809368
:10051000020110920901109208010CC085E00E94AE
:10052000A900892B39F08091000190910101892B5C
:1005300009F052C084E00E94A900892B21F4D093D5
:100540000901C093080185E00E94A900892B21F4CC
:10055000D0930101C0930001A0900401B090050167
:1005600080910C0190910D01B501681B790B8BE016
:100570000E943E01809002019090030180910A0147
:1005800090910B01B401681B790B8AE00E943E0137
:1005900080E00E94A900892B09F041C083E00E94FD
:1005A000A900892BE1F581E00E94A900892BB9F50A
:1005B00082E00E94A900892B91F560E08DE00E9405
:1005C000D20060E08CE00E94D20060E04EC09093C8
:1005D00007018093060191CF809106019091070158
:1005E0008555910986359105ACF4F0920701E092AA
:1005F0000601809106019091070190930501809377
:100600000401909303018093020110920101109262
:10061000000190CF9093070180930601EACF80E01C
:100620000E94A900892B39F183E00E94A900892B3F
:1006300011F182E00E94A900892BE9F481E00E9477
:10064000A900892BC1F4C40197FC01969595879563
:1006500090930D0180930C0161E08DE00E94D20027
:1006600060E08CE00E94D20061E087E00E94D2004E
:1006700060E086E067C081E00E94A900892BC9F094
:1006800083E00E94A900892BA1F082E00E94A900CA
:10069000892B79F480E00E94A900892B51F4C401D0
:1006A00097FC01969595879590930D0180930C0189
:1006B0003BC080E00E94A900892BC9F082E00E9423
:1006C000A900892BA1F083E00E94A900892B79F46D
:1006D00081E00E94A900892B51F4C501B7FC019665
:1006E0009595879590930B0180930A01B5CF81E092
:1006F0000E94A900892B79F182E00E94A900892B30
:1007000051F183E00E94A900892B29F580E00E9425
:10071000A900892B01F5C501B7FC01969595879530
:1007200090930B0180930A0161E08CE00E94D2005B
:1007300060E08DE00E94D20061E086E00E94D2007D
:1007400060E087E00E94D2000115110509F4BCCEDB
:100750000E940000B9CE80E00E94A900892BB1F070
:1007600083E00E94A900892B89F482E00E94A900FD
:10077000892B61F481E00E94A900892B39F461E0A2
:100780008DE00E94D20060E08CE035C081E00E94E4
:10079000A900892BB1F083E00E94A900892B89F47C
:1007A00082E00E94A900892B61F480E00E94A900E8
:1007B000892B39F461E08CE00E94D20060E08DE08A
:1007C00038C082E00E94A900892BC9F080E00E9415
:1007D000A900892BA1F481E00E94A900892B79F45A
:1007E00083E00E94A900892B51F461E08CE00E9413
:1007F000D20060E08DE00E94D20061E042C083E060
:100800000E94A900892BF1F080E00E94A900892BA9
:10081000C9F481E00E94A900892BA1F482E00E9422
:10082000A900892B79F461E08DE00E94D20060E09C
:100830008CE00E94D20061E086E00E94D20060E07D
:1008400087E024C080E00E94A900892B29F081E084
:100850000E94A900892B61F482E00E94A900892BE3
:1008600009F472CF83E00E94A900892B09F46CCFB0
:1008700060E08DE00E94D20060E08CE00E94D20037
:1008800060E087E00E94D20060E086E00E94D20033
:1008900010920B0110920A0110920D0110920C019E
:0608A00053CFF894FFCFD6
:0A08A6000100550055005500010047
:00000001FF
